:100000000C945D000C9485000C9485000C94850084
:100010000C9485000C9485000C9485000C9485004C
:100020000C9485000C9485000C9485000C9485003C
:100030000C9485000C9485000C9485000C9485002C
:100040000C94DB010C9485000C94E7030C942A04B7
:100050000C9485000C9485000C9485000C9485000C
:100060000C9485000C94850000000007000201003C
:100070000003040600000000000000000102040864
:100080001020408001020408102001020408102002
:10009000040404040404040402020202020203032E
:1000A0000303030300000000250028002B000000CC
:1000B0000000240027002A00ED0411241FBECFEF0A
:1000C000D8E0DEBFCDBF11E0A0E0B1E0E8EEFDE09A
:1000D00002C005900D92A63BB107D9F722E0A6EB2E
:1000E000B1E001C01D92A936B207E1F710E0CDE5FD
:1000F000D0E004C02197FE010E94DD06CC35D10777
:10010000C9F70E9440030C94F2060C940000CF92B1
:10011000DF92EF92FF920F931F93CF93DF9340E80C
:1001200055E260E070E08FEB91E00E94650460E0D2
:10013000809182010E94D40260E0809180010E943F
:10014000D4028AE8C82E81E0D82E61E0F6018081D1
:100150000E94D40298E8E92E91E0F92E61E0F701BF
:1001600080810E94D40206E811E061E0F8018081FC
:100170000E94D402C4E8D1E061E088810E94D402E8
:1001800060E0F60180810E94100360E0F701808149
:100190000E94100360E0F80180810E94100360E07B
:1001A0008881DF91CF911F910F91FF90EF90DF90A9
:1001B000CF900C941003CF93DF93EC016881809172
:1001C0008A010E9410036A81809188010E941003B5
:1001D0006C81809186010E9410036E818091840160
:1001E000DF91CF910C9410033F924F925F926F92E8
:1001F0007F928F929F92AF92BF92CF92DF92EF92B7
:10020000FF920F931F93CF93DF9330E0832E31E063
:10021000932EC0E0D0E04FE0342EC4010E94DB00FA
:100220006FE871E08FEB91E00E94650521964AE04E
:1002300050E0BE018FEB91E00E94220665E971E07B
:100240008FEB91E00E946505612C712CF401E60DA5
:10025000F71D608171814AE050E08FEB91E00E94D0
:10026000220682E0680E711C98E06916710471F72D
:1002700063EA71E08FEB91E00E9465058091820155
:100280000E94BE01BC01990F880B990B1F921F920F
:100290001F923F92A12CB12C6501EE24EA9413E049
:1002A000F12E00E010E020E030E0A9010E944006BD
:1002B0002B013C01809180010E94BE01BC01990F7D
:1002C000880B990B1F921F921F923F9220E030E003
:1002D000A9010E944006162F809182010E94BE0152
:1002E0004AE050E0BC018FEB91E00E94220669E9F0
:1002F00071E08FEB91E00E9465054AE050E0B201A9
:100300008FEB91E00E94220665E971E08FEB91E0AE
:100310000E946505812F0E94BE014AE050E0BC01A9
:100320008FEB91E00E94290688E0880E911C8DB722
:100330009EB708960FB6F8949EBF0FBE8DBFC03112
:10034000D10509F06ACF60918C0170918D01072E63
:10035000000C880B990BDF91CF911F910F91FF90AB
:10036000EF90DF90CF90BF90AF909F908F907F9055
:100370006F905F904F903F900C944A028E3008F03F
:100380008E50877020918E0190E4299F9001112456
:10039000822B80937C0080917A00806480937A0025
:1003A00080917A0086FDFCCF8091780020917900C1
:1003B00090E0922B08951F920F920FB60F92112486
:1003C0002F933F938F939F93AF93BF938091B701E8
:1003D0009091B801A091B901B091BA013091B601E4
:1003E00023E0230F2D3720F40196A11DB11D05C078
:1003F00026E8230F0296A11DB11D2093B60180931C
:10040000B7019093B801A093B901B093BA0180915C
:10041000BB019091BC01A091BD01B091BE010196BC
:10042000A11DB11D8093BB019093BC01A093BD01A0
:10043000B093BE01BF91AF919F918F913F912F914A
:100440000F900FBE0F901F9018953FB7F8948091B2
:10045000BB019091BC01A091BD01B091BE0126B538
:10046000A89B05C02F3F19F00196A11DB11D3FBFEC
:10047000BA2FA92F982F8827820F911DA11DB11D7A
:10048000BC01CD0142E0660F771F881F991F4A9576
:10049000D1F70895CF92DF92EF92FF92CF93DF933F
:1004A0006B017C010E942502EB01C114D104E1041F
:1004B000F10479F00E9425026C1B7D0B683E7340AD
:1004C000A0F381E0C81AD108E108F108C851DC4F57
:1004D000ECCFDF91CF91FF90EF90DF90CF90089518
:1004E000789484B5826084BD84B5816084BD85B50F
:1004F000826085BD85B5816085BDEEE6F0E08081D6
:1005000081608083E1E8F0E01082808182608083F6
:10051000808181608083E0E8F0E080818160808379
:10052000E1EBF0E0808184608083E0EBF0E08081AB
:1005300081608083EAE7F0E080818460808380814D
:1005400082608083808181608083808180688083F5
:100550001092C1000895833081F028F4813099F021
:100560008230A1F008958630A9F08730B9F0843048
:10057000D1F4809180008F7D03C0809180008F77BF
:1005800080938000089584B58F7702C084B58F7DF5
:1005900084BD08958091B0008F7703C08091B00032
:1005A0008F7D8093B0000895CF93DF9390E0FC019E
:1005B000E458FF4F2491FC01E057FF4F84918823BA
:1005C00061F190E0880F991FFC01E255FF4FC59142
:1005D000D491FC01EC55FF4FA591B491611109C074
:1005E0009FB7F8948881209582238883EC912E23ED
:1005F0000BC0623061F49FB7F8943881822F8095E8
:1006000083238883EC912E2B2C939FBF06C08FB73A
:10061000F894E8812E2B28838FBFDF91CF91089526
:100620001F93CF93DF93282F30E0F901E859FF4F54
:100630008491F901E458FF4FD491F901E057FF4F3D
:10064000C491CC23C9F0162F81110E94AB02EC2F6C
:10065000F0E0EE0FFF1FEC55FF4FA591B4918FB75F
:10066000F894111105C09C91ED2FE095E92302C08B
:10067000EC91ED2BEC938FBFDF91CF911F910895FB
:100680000E9470020E948700C1E2D4E00E94F40040
:100690002097E1F30E942104F9CFFC0124853585E0
:1006A000F901E05CFF4F8081918132962081318198
:1006B000821B930B8F7399270895DC011C96ED9193
:1006C000FC911D97DF01A05CBF4F2D913C911197CC
:1006D00012968D919C9111972817390739F08D91B9
:1006E0009C91E80FF91F808190E008958FEF9FEFB4
:1006F0000895FC01A485B585FD01E05CFF4F2081D4
:1007000031813296808191812817390779F0808173
:100710009181A80FB91F8C91208131812F5F3F4FAC
:100720002F7333273183208390E008958FEF9FEF5D
:100730000895FC0181A1882329F0A489B5898C91B1
:1007400086FFFBCF11A208950F931F93CF93DF93E2
:10075000FC01A685B7858D01005C1F4FE8018881EB
:10076000998101968F739927AD014E5B5F4FEA0126
:100770002881398182179307D1F3E80128813981D3
:10078000A20FB31F6C93A685B785A05CBF4F1196CF
:100790009C938E93A689B7892C9181E090E0078C79
:1007A00002C0880F991F0A94E2F7822B8C9381E094
:1007B00081A30488F589E02D80818064808381E0B5
:1007C00090E0DF91CF911F910F91089508951F92AE
:1007D0000F920FB60F9211242F934F935F938F9325
:1007E0009F93EF93FF938091C00082FD1CC02091E6
:1007F000C600809165029091660201968F739927D9
:1008000040916702509168028417950771F0E0915A
:100810006502F0916602EB5DFD4F208390936602C6
:100820008093650202C08091C600FF91EF919F9175
:100830008F915F914F912F910F900FBE0F901F904E
:1008400018958FEB91E00E944D03892B11F00C94C9
:10085000E60308951F920F920FB60F9211242F9363
:100860003F938F939F93EF93FF93209121023091B9
:10087000220280912302909124022817390731F433
:100880008091C1008F7D8093C10014C0E09123024C
:10089000F0912402EF51FE4F20818091230290912C
:1008A000240201968F739927909324028093230248
:1008B0002093C600FF91EF919F918F913F912F91CF
:1008C0000F900FBE0F901F901895CF92DF92EF926E
:1008D000FF920F931F93CF93DF93EC016A017B018B
:1008E0004115514E6105710509F1EC89FD8981E0E1
:1008F00090E008A002C0880F991F0A94E2F7808355
:1009000060E079E08DE390E0A70196010E949106F6
:1009100089019A010150110921093109369527955C
:1009200017950795980101151041A8F0EC89FD89EC
:10093000108260E874E88EE190E0A70196010E94C1
:100940009106DA01C9010197A109B109B695A795E8
:10095000979587959C01E889F9893083EA89FB8915
:10096000208319A2EE89FF89408181E090E09C01FB
:100970000C8C02C0220F331F0A94E2F7242B208331
:10098000EE89FF8940819C010D8C02C0220F331F2C
:100990000A94E2F7242B2083EE89FF8940819C0191
:1009A0000E8C02C0220F331F0A94E2F7242B2083FF
:1009B000EE89FF8920810F8C02C0880F991F0A944D
:1009C000E2F7809582238083DF91CF911F910F9171
:1009D000FF90EF90DF90CF900895EFEBF1E013825E
:1009E000128288EE93E0A0E0B0E084839583A68332
:1009F000B7838AEA91E09183808385E292E09587CC
:100A0000848781EE91E09787868785EC90E0918BD3
:100A1000808B84EC90E0938B828B80EC90E0958BC4
:100A2000848B81EC90E0978B868B82EC90E0918FA9
:100A3000808F86EC90E0938F828F84E0848F83E0B8
:100A4000858F87E0868F85E0878F81E080A308957A
:100A5000CF92DF92EF92FF920F931F93CF93DF938A
:100A60006C01EB017B01E40EF51E00E010E0CE15F9
:100A7000DF0561F06991D601ED91FC910190F08163
:100A8000E02DC6010995080F191FF1CFC801DF91AC
:100A9000CF911F910F91FF90EF90DF90CF9008952D
:100AA0006115710579F0FB0101900020E9F731979C
:100AB000AF01461B570BDC01ED91FC910280F381E5
:100AC000E02D099480E090E008950C945005DC013D
:100AD000ED91FC910190F081E02D09940F931F930B
:100AE000CF93DF93EC016DE00E9467058C016AE013
:100AF000CE010E946705800F911FDF91CF911F915A
:100B00000F9108958F929F92AF92BF92CF92DF92F2
:100B1000EF92FF920F931F93CF93DF93CDB7DEB782
:100B2000A1970FB6F894DEBF0FBECDBF6C01142F96
:100B3000E52FCB01022F19A2223008F40AE07E0132
:100B400021E2E20EF11C802E912CA12CB12C612F00
:100B50007E2FA50194010E949106029F1019112475
:100B600081E0E81AF1081A3014F4105D01C0195C34
:100B7000F7011083122FE32FCA01232B242B252BDF
:100B800031F7B701C6010E945005A1960FB6F8943F
:100B9000DEBF0FBECDBFDF91CF911F910F91FF90B0
:100BA000EF90DF90CF90BF90AF909F908F9008957F
:100BB000CF92DF92EF92FF920F931F93CF93DF9329
:100BC000EC016A017B012115310579F4E881F98195
:100BD0000190F081E02D642FDF91CF911F910F9153
:100BE000FF90EF90DF90CF9009942A303105E9F41F
:100BF00077FF1AC06DE20E9467058C0144275527D4
:100C0000BA014C195D096E097F092AE0CE010E94E4
:100C10008205800F911FDF91CF911F910F91FF905F
:100C2000EF90DF90CF9008952AE0B701A601CE01A2
:100C3000DF91CF911F910F91FF90EF90DF90CF90B8
:100C40000C9482059A01AB01770F660B770B0C941D
:100C5000D8050F931F93CF93DF93EC019A01AB015B
:100C6000770F660B770B0E94D8058C01CE010E948E
:100C70006E05800F911FDF91CF911F910F91089505
:100C80004F925F926F927F92AF92BF92CF92DF921C
:100C9000EF92FF920F931F93CF93DF93CDB7DEB701
:100CA00029013A019B01AC0124193509460957096C
:100CB00089899A89AB89BC89BC01CD016A197B09F4
:100CC0008C099D090E948106A80197012419350904
:100CD000460957090E94B306CA01B9016A0D7B1D76
:100CE0008C1D9D1DDF91CF911F910F91FF90EF9073
:100CF000DF90CF90BF90AF907F906F905F904F90BC
:100D00000895DB018F939F930E94D206BF91AF910C
:100D1000A29F800D911DA39F900DB29F900D112455
:100D20000895A1E21A2EAA1BBB1BFD010DC0AA1F2C
:100D3000BB1FEE1FFF1FA217B307E407F50720F044
:100D4000A21BB30BE40BF50B661F771F881F991FBF
:100D50001A9469F760957095809590959B01AC0108
:100D6000BD01CF010895052E97FB1EF400940E944B
:100D7000CA0657FD07D00E94910607FC03D04EF427
:100D80000C94CA0650954095309521953F4F4F4F92
:100D90005F4F089590958095709561957F4F8F4F27
:100DA0009F4F08950E94E306A59F900DB49F900D5C
:100DB000A49F800D911D11240895EE0FFF1F059033
:100DC000F491E02D0994A29FB001B39FC001A39FAD
:100DD000700D811D1124911DB29F700D811D112474
:080DE000911D0895F894FFCF66
:100DE80000000000000000000000000000000100FA
:100DF80000000000010000000000000001000100E8
:100E080000000100000000000000010000000100D7
:100E180000000100010000000000010001000100C5
:100E280001000000000000000100000000000100B7
:100E380001000000010000000100000001000100A5
:100E48000100010000000000010001000000010095
:100E58000100010001000000010001000100010083
:100E68000F000E000C000B000A000900C800014C1E
:100E780044523A2000202D2000203D20004C4452AE
:100E88002000203A200000000000A40328054D039C
:060E980079035D039903DC
:00000001FF
