:100000000C945D000C9485000C9485000C94850084
:100010000C9485000C9485000C9485000C9485004C
:100020000C9485000C9485000C9485000C9485003C
:100030000C9485000C9485000C9485000C9485002C
:100040000C9446020C9485000C9452040C94950474
:100050000C9485000C9485000C9485000C9485000C
:100060000C9485000C94850000000007000201003C
:100070000003040600000000000000000102040864
:100080001020408001020408102001020408102002
:10009000040404040404040402020202020203032E
:1000A0000303030300000000250028002B000000CC
:1000B0000000240027002A00580511241FBECFEF9E
:1000C000D8E0DEBFCDBF11E0A0E0B1E0E6E4F4E1AE
:1000D00002C005900D92A43DB107D9F722E0A4ED2E
:1000E000B1E001C01D92A738B207E1F710E0CDE5FD
:1000F000D0E004C02197FE010E941B0ACC35D10735
:10010000C9F70E94AB030C94210A0C940000CF9213
:10011000DF92EF92FF920F931F93CF93DF9340E80C
:1001200055E260E070E08DED91E00E94D00461E066
:10013000809190010E943F0361E080918C010E94B8
:100140003F0361E080918E010E943F0360E08EE0FA
:100150000E943F0360E08FE00E943F038AE8C82EC0
:1001600081E0D82E61E0F60180810E943F0398E88B
:10017000E92E91E0F92E61E0F70180810E943F03B2
:1001800006E811E061E0F80180810E943F03C4E8C5
:10019000D1E061E088810E943F0360E0F601808148
:1001A0000E947B0360E0F70180810E947B0360E096
:1001B000F80180810E947B0360E08881DF91CF910C
:1001C0001F910F91FF90EF90DF90CF900C947B03E5
:1001D000CF93DF93EC01688180918A010E947B03B9
:1001E0006A81809188010E947B036C8180918601E5
:1001F0000E947B036E8180918401DF91CF910C94EA
:100200007B032F923F924F925F926F927F928F92D9
:100210009F92AF92BF92CF92DF92EF92FF920F9395
:100220001F93CF93DF9380E0A82E81E0B82EE12CBE
:10023000F12C712C612C88248394912CC5010E948F
:10024000E80065E971E08DED91E00E94D00567015D
:100250002FEFC21AD20A4AE050E0B6018DED91E0CC
:100260000E948D066BE971E08DED91E00E94D00552
:10027000C0E0D0E0F501EC0FFD1F608171814AE024
:1002800050E08DED91E00E948D062296C830D10598
:1002900089F768E971E08DED91E00E94D0058091C9
:1002A00082010E9429028C01809180010E94290212
:1002B000EC01C6010197089750F4C017D1079CF4D0
:1002C000C40101C0880FEA94EAF7680E0CC0C01799
:1002D000D1074CF4C6010997940102C0220F331FC5
:1002E0008A95E2F7720E6FE971E08DED91E00E9460
:1002F000D005B801110F880B990B0E94D2081B0181
:100300002C01BE01DD0F880B990B0E94D2089B01C6
:10031000AC01C201B1010E942808AB01BC0122E07E
:1003200030E08DED91E00E94A40738E0A30EB11CEF
:10033000760180E1C816D10409F080CF60E0809199
:1003400090010E947B03272D41E060918C018091F8
:100350008E010E94EE01262D41E060918C0180917A
:100360008E010E94EE0161E0809190010E947B036A
:1003700066EA71E08DED91E00E94D00542E050E028
:10038000662D8DED91E00E94A1066FEA71E08DED82
:1003900091E00E94D00542E050E0672D8DED91E0A4
:1003A0000E94A8066091920170919301072E000CA3
:1003B000880B990BDF91CF911F910F91FF90EF90D8
:1003C000DF90CF90BF90AF909F908F907F906F9075
:1003D0005F904F903F902F900C94B502BF92CF92B8
:1003E000DF92EF92FF920F931F93CF93DF93C82E6C
:1003F000D62EB42EC7E0D0E0022F10E087E0E82E22
:10040000F12CB11005C0C7018C1B9D0B980102C0D7
:1004100098018C2F02C0359527958A95E2F7B9018E
:10042000617077278C2D0E947B0361E08D2D0E94E7
:100430007B0360E08D2D0E947B03219710F7DF91F5
:10044000CF911F910F91FF90EF90DF90CF90BF90D1
:1004500008958E3008F08E5087702091940190E4BA
:10046000299F90011124822B80937C0080917A0037
:10047000806480937A0080917A0086FDFCCF809121
:1004800078002091790090E0922B08951F920F92AE
:100490000FB60F9211242F933F938F939F93AF9397
:1004A000BF938091D5019091D601A091D701B091D1
:1004B000D8013091D40123E0230F2D3720F4019689
:1004C000A11DB11D05C026E8230F0296A11DB11D77
:1004D0002093D4018093D5019093D601A093D701A6
:1004E000B093D8018091D9019091DA01A091DB01FC
:1004F000B091DC010196A11DB11D8093D9019093AB
:10050000DA01A093DB01B093DC01BF91AF919F9121
:100510008F913F912F910F900FBE0F901F901895C4
:100520003FB7F8948091D9019091DA01A091DB0155
:10053000B091DC0126B5A89B05C02F3F19F00196AC
:10054000A11DB11D3FBFBA2FA92F982F8827820F59
:10055000911DA11DB11DBC01CD0142E0660F771FA9
:10056000881F991F4A95D1F70895CF92DF92EF9295
:10057000FF92CF93DF936B017C010E949002EB010D
:10058000C114D104E104F10479F00E9490026C1BC3
:100590007D0B683E7340A0F381E0C81AD108E108E2
:1005A000F108C851DC4FECCFDF91CF91FF90EF9075
:1005B000DF90CF900895789484B5826084BD84B52F
:1005C000816084BD85B5826085BD85B5816085BD4E
:1005D000EEE6F0E0808181608083E1E8F0E0108267
:1005E000808182608083808181608083E0E8F0E0A8
:1005F000808181608083E1EBF0E080818460808392
:10060000E0EBF0E0808181608083EAE7F0E08081C8
:100610008460808380818260808380818160808328
:100620008081806880831092C1000895833081F0BA
:1006300028F4813099F08230A1F008958630A9F035
:100640008730B9F08430D1F4809180008F7D03C071
:10065000809180008F7780938000089584B58F7794
:1006600002C084B58F7D84BD08958091B0008F77DE
:1006700003C08091B0008F7D8093B0000895CF9328
:10068000DF9390E0FC01E458FF4F2491FC01E05718
:10069000FF4F8491882361F190E0880F991FFC013E
:1006A000E255FF4FC591D491FC01EC55FF4FA59148
:1006B000B491611109C09FB7F89488812095822375
:1006C0008883EC912E230BC0623061F49FB7F894BD
:1006D0003881822F809583238883EC912E2B2C9355
:1006E0009FBF06C08FB7F894E8812E2B28838FBF59
:1006F000DF91CF9108951F93CF93DF93282F30E0A0
:10070000F901E859FF4F8491F901E458FF4FD49162
:10071000F901E057FF4FC491CC23C9F0162F811186
:100720000E941603EC2FF0E0EE0FFF1FEC55FF4F79
:10073000A591B4918FB7F894111105C09C91ED2F3C
:10074000E095E92302C0EC91ED2BEC938FBFDF9194
:10075000CF911F9108950E94DB020E948700CCE890
:10076000D4E00E9401012097E1F30E948C04F9CFAC
:10077000FC0124853585F901E05CFF4F8081918182
:10078000329620813181821B930B8F7399270895B4
:10079000DC011C96ED91FC911D97DF01A05CBF4F21
:1007A0002D913C91119712968D919C91119728173C
:1007B000390739F08D919C91E80FF91F808190E005
:1007C00008958FEF9FEF0895FC01A485B585FD0185
:1007D000E05CFF4F20813181329680819181281722
:1007E000390779F080819181A80FB91F8C91208100
:1007F00031812F5F3F4F2F7333273183208390E068
:1008000008958FEF9FEF0895FC0181A1882329F0BF
:10081000A489B5898C9186FFFBCF11A208950F930F
:100820001F93CF93DF93FC01A685B7858D01005CF4
:100830001F4FE8018881998101968F739927AD0137
:100840004E5B5F4FEA012881398182179307D1F30C
:10085000E80128813981A20FB31F6C93A685B78563
:10086000A05CBF4F11969C938E93A689B7892C915B
:1008700081E090E0078C02C0880F991F0A94E2F78C
:10088000822B8C9381E081A30488F589E02D8081FF
:100890008064808381E090E0DF91CF911F910F9180
:1008A000089508951F920F920FB60F9211242F935F
:1008B0004F935F938F939F93EF93FF938091C0002B
:1008C00082FD1CC02091C600809183029091840219
:1008D00001968F7399274091850250918602841763
:1008E000950771F0E0918302F0918402ED5BFD4F7A
:1008F0002083909384028093830202C08091C6007B
:10090000FF91EF919F918F915F914F912F910F9058
:100910000FBE0F901F9018958DED91E00E94B803C7
:10092000892B11F00C94510408951F920F920FB669
:100930000F9211242F933F938F939F93EF93FF93E5
:1009400020913F02309140028091410290914202F9
:100950002817390731F48091C1008F7D8093C10041
:1009600014C0E0914102F0914202E150FE4F20811B
:10097000809141029091420201968F739927909342
:100980004202809341022093C600FF91EF919F9114
:100990008F913F912F910F900FBE0F901F90189540
:1009A000CF92DF92EF92FF920F931F93CF93DF933B
:1009B000EC016A017B014115514E6105710509F198
:1009C000EC89FD8981E090E008A002C0880F991FA2
:1009D0000A94E2F7808360E079E08DE390E0A7017C
:1009E00096010E94F90989019A0101501109210912
:1009F00031093695279517950795980101151041EE
:100A0000A8F0EC89FD89108260E874E88EE190E03E
:100A1000A70196010E94F909DA01C9010197A1090C
:100A2000B109B695A795979587959C01E889F989AD
:100A30003083EA89FB89208319A2EE89FF894081EE
:100A400081E090E09C010C8C02C0220F331F0A94BD
:100A5000E2F7242B2083EE89FF8940819C010D8CD5
:100A600002C0220F331F0A94E2F7242B2083EE8961
:100A7000FF8940819C010E8C02C0220F331F0A9413
:100A8000E2F7242B2083EE89FF8920810F8C02C09E
:100A9000880F991F0A94E2F7809582238083DF9163
:100AA000CF911F910F91FF90EF90DF90CF9008951D
:100AB000EDEDF1E01382128288EE93E0A0E0B0E069
:100AC00084839583A683B7838AEB91E091838083A7
:100AD00083E492E0958784878FEF91E097878687FC
:100AE00085EC90E0918B808B84EC90E0938B828BF3
:100AF00080EC90E0958B848B81EC90E0978B868BDB
:100B000082EC90E0918F808F86EC90E0938F828FC3
:100B100084E0848F83E0858F87E0868F85E0878FF0
:100B200081E080A30895CF92DF92EF92FF920F931E
:100B30001F93CF93DF936C01EB017B01E40EF51E55
:100B400000E010E0CE15DF0561F06991D601ED916E
:100B5000FC910190F081E02DC6010995080F191F45
:100B6000F1CFC801DF91CF911F910F91FF90EF90CE
:100B7000DF90CF9008956115710579F0FB01019028
:100B80000020E9F73197AF01461B570BDC01ED91CF
:100B9000FC910280F381E02D099480E090E00895BB
:100BA0000C94BB05DC01ED91FC910190F081E02DEE
:100BB00009940F931F93CF93DF93EC016DE00E9494
:100BC000D2058C016AE0CE010E94D205800F911FF0
:100BD000DF91CF911F910F9108958F929F92AF92C5
:100BE000BF92CF92DF92EF92FF920F931F93CF931A
:100BF000DF93CDB7DEB7A1970FB6F894DEBF0FBE77
:100C0000CDBF6C01142FE52FCB01022F19A222308A
:100C100008F40AE07E0121E2E20EF11C802E912C04
:100C2000A12CB12C612F7E2FA50194010E94F909FE
:100C3000029F1019112481E0E81AF1081A3014F407
:100C4000105D01C0195CF7011083122FE32FCA0158
:100C5000232B242B252B31F7B701C6010E94BB059E
:100C6000A1960FB6F894DEBF0FBECDBFDF91CF9136
:100C70001F910F91FF90EF90DF90CF90BF90AF90BA
:100C80009F908F900895CF92DF92EF92FF920F93F3
:100C90001F93CF93DF93EC016A017B01211531058E
:100CA00079F4E881F9810190F081E02D642FDF91E2
:100CB000CF911F910F91FF90EF90DF90CF9009940B
:100CC0002A303105E9F477FF1AC06DE20E94D2059F
:100CD0008C0144275527BA014C195D096E097F091B
:100CE0002AE0CE010E94ED05800F911FDF91CF9188
:100CF0001F910F91FF90EF90DF90CF9008952AE021
:100D0000B701A601CE01DF91CF911F910F91FF9006
:100D1000EF90DF90CF900C94ED059A01AB01770F27
:100D2000660B770B0C9443062115310541F4DC0169
:100D3000ED91FC910190F081E02D642F09940C94C9
:100D4000ED059A01462F50E060E070E00C949406A7
:100D50000F931F93CF93DF93EC019A01462F50E03E
:100D600060E070E00E9494068C01CE010E94D905DB
:100D7000800F911FDF91CF911F910F9108954F9296
:100D80005F926F927F928F929F92AF92BF92CF921B
:100D9000DF92EF92FF92CF93DF93EC016A017B0128
:100DA000B22E9A01AB01C701B6010E94F409882353
:100DB00019F066EC71E027C026013701E89477F856
:100DC0002FEF3FEF4FE75FE7C301B2010E94F40945
:100DD00081110DC02FEF3FEF4FE75FE7C301B20175
:100DE0000E94230818161CF46AEC71E00CC02FEF67
:100DF0003FEF4FE75FE4C701B6010E948209181672
:100E00009CF46EEC71E0CE01DF91CF91FF90EF90FA
:100E1000DF90CF90BF90AF909F908F907F906F901A
:100E20005F904F900C94BB052FEF3FEF4FE75FECC7
:100E3000C701B6010E94230887FDE3CF20E030E020
:100E4000A901C701B6010E94230887FF0AC06DE20D
:100E5000CE010E94D2054C01F7FAF094F7F8F09415
:100E600002C0812C912CA12C60E070E080E09FE317
:100E7000AB1441F020E030E040E251E40E94280849
:100E8000A394F6CF9B01AC01C701B6010E94B7073E
:100E90002B013C010E94A1086B017C010E94D0083B
:100EA0009B01AC01C301B2010E94B6072B013C01BA
:100EB0002AE0B701A601CE010E94ED057C01E80CF5
:100EC000F91CBB2039F062ED71E0CE010E94BB0538
:100ED000E80EF91EDB2CDD2039F120E030E040E2A5
:100EE00051E4C301B2010E9487092B013C010E9419
:100EF0009A084B01770FAA08BB082AE030E0B50139
:100F0000A401CE010E944306E80EF91EC501B401FA
:100F10000E94D2089B01AC01C301B2010E94B60736
:100F20002B013C01DA94D7CFC701DF91CF91FF901D
:100F3000EF90DF90CF90BF90AF909F908F907F9079
:100F40006F905F904F9008950F931F93CF93DF930F
:100F5000EC010E94BF068C01CE010E94D905800FD2
:100F6000911FDF91CF911F910F9108955058BB278A
:100F7000AA270E94CE070C9448090E943A0938F02B
:100F80000E94410920F039F49F3F19F426F40C9493
:100F900037090EF4E095E7FB0C943109E92F0E9424
:100FA000590958F3BA17620773078407950720F0A9
:100FB00079F4A6F50C947B090EF4E0950B2EBA2F6C
:100FC000A02D0B01B90190010C01CA01A00111244F
:100FD000FF27591B99F0593F50F4503E68F11A16FB
:100FE000F040A22F232F342F4427585FF3CF46958C
:100FF00037952795A795F0405395C9F77EF41F16AE
:10100000BA0B620B730B840BBAF09150A1F0FF0F77
:10101000BB1F661F771F881FC2F70EC0BA0F621F63
:10102000731F841F48F4879577956795B795F79553
:101030009E3F08F0B0CF9395880F08F09927EE0FE8
:101040009795879508950E940D0908F481E0089509
:101050000E943C080C9448090E94410958F00E94E3
:101060003A0940F029F45F3F29F00C9431095111FD
:101070000C947C090C9437090E94590968F3992350
:10108000B1F3552391F3951B550BBB27AA27621784
:101090007307840738F09F5F5F4F220F331F441F91
:1010A000AA1FA9F335D00E2E3AF0E0E832D09150C5
:1010B0005040E695001CCAF72BD0FE2F29D0660FB2
:1010C000771F881FBB1F261737074807AB07B0E8F5
:1010D00009F0BB0B802DBF01FF2793585F4F3AF0FB
:1010E0009E3F510578F00C9431090C947C095F3FC8
:1010F000E4F3983ED4F3869577956795B795F79581
:101100009F5FC9F7880F911D9695879597F9089568
:10111000E1E0660F771F881FBB1F62177307840704
:10112000BA0720F0621B730B840BBA0BEE1F88F713
:10113000E09508950E94A1086894B1110C947C096F
:1011400008950E94610988F09F5798F0B92F992758
:10115000B751B0F0E1F0660F771F881F991F1AF0A2
:10116000BA95C9F714C0B13091F00E947B09B1E083
:1011700008950C947B09672F782F8827B85F39F082
:10118000B93FCCF3869577956795B395D9F73EF43B
:1011900090958095709561957F4F8F4F9F4F0895E3
:1011A000E89409C097FB3EF4909580957095619501
:1011B0007F4F8F4F9F4F9923A9F0F92F96E9BB27B7
:1011C0009395F695879577956795B795F111F8CF33
:1011D000FAF4BB0F11F460FF1BC06F5F7F4F8F4F9E
:1011E0009F4F16C0882311F096E911C0772321F094
:1011F0009EE8872F762F05C0662371F096E8862F2C
:1012000070E060E02AF09A95660F771F881FDAF782
:10121000880F9695879597F90895990F0008550FAF
:10122000AA0BE0E8FEEF16161706E807F907C0F06C
:1012300012161306E407F50798F0621B730B840B74
:10124000950B39F40A2661F0232B242B252B21F44E
:1012500008950A2609F4A140A6958FEF811D811DEE
:10126000089597F99F6780E870E060E008959FEF28
:1012700080EC089500240A9416161706180609062D
:10128000089500240A9412161306140605060895FC
:10129000092E0394000C11F4882352F0BB0F40F484
:1012A000BF2B11F460FF04C06F5F7F4F8F4F9F4FC4
:1012B000089557FD9058440F551F59F05F3F71F046
:1012C0004795880F97FB991F61F09F3F79F08795AD
:1012D0000895121613061406551FF2CF4695F1DF36
:1012E00008C0161617061806991FF1CF86957105C6
:1012F000610508940895E894BB2766277727CB01FA
:1013000097F908950E940D0908F48FEF08950E943F
:101310009A090C9448090E943A0938F00E94410940
:1013200020F0952311F00C9431090C943709112405
:101330000C947C090E94590970F3959FC1F3950F95
:1013400050E0551F629FF001729FBB27F00DB11D49
:10135000639FAA27F00DB11DAA1F649F6627B00DD9
:10136000A11D661F829F2227B00DA11D621F739FC2
:10137000B00DA11D621F839FA00D611D221F749FD0
:101380003327A00D611D231F849F600D211D822F17
:10139000762F6A2F11249F5750409AF0F1F088233E
:1013A0004AF0EE0FFF1FBB1F661F771F881F91506B
:1013B0005040A9F79E3F510580F00C9431090C94E0
:1013C0007C095F3FE4F3983ED4F386957795679563
:1013D000B795F795E7959F5FC1F7FE2B880F911D95
:1013E0009695879597F908950E940D09880B990B9A
:1013F0000895A1E21A2EAA1BBB1BFD010DC0AA1F56
:10140000BB1FEE1FFF1FA217B307E407F50720F06D
:10141000A21BB30BE40BF50B661F771F881F991FE8
:101420001A9469F760957095809590959B01AC0131
:10143000BD01CF010895EE0FFF1F0590F491E02D3F
:061440000994F894FFCFAF
:101446000000000000000000000000000000010095
:101456000000000001000000000000000100010083
:101466000000010000000000000001000000010073
:101476000000010001000000000001000100010061
:101486000100000000000000010000000000010053
:101496000100000001000000010000000100010041
:1014A6000100010000000000010001000000010031
:1014B600010001000100000001000100010001001F
:1014C6000F000E000C000B000A00090008000700C0
:1014D60006000A00014C44523A2000202D20004C00
:1014E600757A203D200052656C6179733A20002D93
:1014F600004C44522000000000000F049305B8037E
:10150600E403C80304046E616E00696E66006F76BC
:0415160066002E003D
:00000001FF
