:100000000C945D000C9485000C9485000C94850084
:100010000C9485000C9485000C9485000C9485004C
:100020000C9485000C9485000C9485000C9485003C
:100030000C9485000C9485000C9485000C9485002C
:100040000C94AD020C9485000C94B9040C94FC043F
:100050000C9485000C9485000C9485000C9485000C
:100060000C9485000C94850000000007000201003C
:100070000003040600000000000000000102040864
:100080001020408001020408102001020408102002
:10009000040404040404040402020202020203032E
:1000A0000303030300000000250028002B000000CC
:1000B0000000240027002A00BF0511241FBECFEF37
:1000C000D8E0DEBFCDBF11E0A0E0B1E0ECE8FFE09A
:1000D00002C005900D92A23CB107D9F722E0A2EC34
:1000E000B1E001C01D92A537B207E1F710E0CDE500
:1000F000D0E004C02197FE010E94AF07CC35D107A4
:10010000C9F70E9412040C94C4070C940000CF920B
:10011000DF92EF92FF920F931F93CF93DF9340E80C
:1001200055E260E070E08BEC91E00E94370561E001
:1001300080918E010E94A60361E080918A010E9455
:10014000A60361E080918C010E94A60360E08EE02E
:100150000E94A60360E08FE00E94A60388E8C82EF4
:1001600081E0D82E61E0F60180810E94A60396E826
:10017000E92E91E0F92E61E0F70180810E94A6034B
:1001800004E811E061E0F80180810E94A603C2E862
:10019000D1E061E088810E94A60360E0F6018081E1
:1001A0000E94E20360E0F70180810E94E20360E0C8
:1001B000F80180810E94E20360E08881DF91CF91A5
:1001C0001F910F91FF90EF90DF90CF900C94E2037E
:1001D000CF93DF93EC016881809188010E94E20354
:1001E0006A81809186010E94E2036C818091840182
:1001F0000E94E2036E8180918201DF91CF910C9485
:10020000E2032F923F924F925F926F927F928F9272
:100210009F92AF92BF92CF92DF92EF92FF920F9395
:100220001F93CF93DF93CDB7DEB72A970FB6F8941D
:10023000DEBF0FBECDBF80E091E09A878987212C79
:10024000312C812C912C612C712C89859A850E94EE
:10025000E80061E971E08BEC91E00E943706F10162
:100260003196FA83E9834AE050E0BF018BEC91E0DC
:100270000E94F40667E971E08BEC91E00E9437067A
:10028000E985FA85608171814AE050E08BEC91E06C
:100290000E94F406E985FA85628173814AE050E0A4
:1002A0008BEC91E00E94F406E985FA856481758102
:1002B0004AE050E08BEC91E00E94F406E985FA8573
:1002C000668177814AE050E08BEC91E00E94F40671
:1002D0006EEA71E08BEC91E00E943706809180011C
:1002E0000E949002BC01990F880B990B1F921F92DC
:1002F0001F92FFE0FF93A12CB12C6501EE24EA943C
:1003000013E0F12E00E010E020E030E0A9010E94AF
:1003100012076B837C838D839E838B819C8198875E
:100320008F83842D0E949002BC01990F880B990B3A
:100330001F921F921F92EFE0EF9320E030E0A9019F
:100340000E941207162F462E572E0FB6F894DEBFC6
:100350000FBECDBF98E02916310478F4EF81F885FF
:100360004E165F06DCF481E090E002C0880F991F12
:100370002A94E2F7680E791E11C08F81988548167D
:10038000590664F498E0291A310881E090E002C02F
:10039000880F991F2A94E2F7880E991E8091800198
:1003A0000E9490024AE050E0BC018BEC91E00E9478
:1003B000F4066BE971E08BEC91E00E9437064AE0AD
:1003C00050E06B817C818BEC91E00E94F40667E940
:1003D00071E08BEC91E00E943706812F0E94900221
:1003E0004AE050E0BC018BEC91E00E94FB06E985FD
:1003F000FA853896FA87E98729803A80F0E12F1646
:10040000310409F022CF60E080918E010E94E20366
:10041000262D41E060918A0180918C010E94550255
:10042000282D41E060918A0180918C010E94550243
:1004300061E080918E010E94E2036FE971E08BEC34
:1004400091E00E94370642E050E0B3018BEC91E06E
:100450000E94F40667E971E08BEC91E00E94370698
:1004600042E050E0B4018BEC91E00E94FB0662E3B5
:1004700070E080E090E02A960FB6F894DEBF0FBEE1
:10048000CDBFDF91CF911F910F91FF90EF90DF9043
:10049000CF90BF90AF909F908F907F906F905F9024
:1004A0004F903F902F900C941C03BF92CF92DF92FD
:1004B000EF92FF920F931F93CF93DF93C82ED62E08
:1004C000B42EC7E0D0E0022F10E087E0E82EF12C38
:1004D000B11005C0C7018C1B9D0B980102C098018B
:1004E0008C2F02C0359527958A95E2F7B901617086
:1004F00077278C2D0E94E20361E08D2D0E94E2039C
:1005000060E08D2D0E94E203219710F7DF91CF91DB
:100510001F910F91FF90EF90DF90CF90BF900895C3
:100520008E3008F08E5087702091900190E4299FC2
:1005300090011124822B80937C0080917A0080644A
:1005400080937A0080917A0086FDFCCF80917800BC
:100550002091790090E0922B08951F920F920FB690
:100560000F9211242F933F938F939F93AF93BF9339
:100570008091C3019091C401A091C501B091C601C1
:100580003091C20123E0230F2D3720F40196A11DE5
:10059000B11D05C026E8230F0296A11DB11D2093B1
:1005A000C2018093C3019093C401A093C501B0938D
:1005B000C6018091C7019091C801A091C901B09175
:1005C000CA010196A11DB11D8093C7019093C80176
:1005D000A093C901B093CA01BF91AF919F918F9130
:1005E0003F912F910F900FBE0F901F9018953FB71E
:1005F000F8948091C7019091C801A091C901B09170
:10060000CA0126B5A89B05C02F3F19F00196A11D70
:10061000B11D3FBFBA2FA92F982F8827820F911D98
:10062000A11DB11DBC01CD0142E0660F771F881FDF
:10063000991F4A95D1F70895CF92DF92EF92FF92DA
:10064000CF93DF936B017C010E94F702EB01C11491
:10065000D104E104F10479F00E94F7026C1B7D0BD8
:10066000683E7340A0F381E0C81AD108E108F108A0
:10067000C851DC4FECCFDF91CF91FF90EF90DF902E
:10068000CF900895789484B5826084BD84B58160EC
:1006900084BD85B5826085BD85B5816085BDEEE68A
:1006A000F0E0808181608083E1E8F0E01082808169
:1006B00082608083808181608083E0E8F0E08081D7
:1006C00081608083E1EBF0E0808184608083E0EBF7
:1006D000F0E0808181608083EAE7F0E080818460DF
:1006E000808380818260808380818160808380813B
:1006F000806880831092C1000895833081F028F4CF
:10070000813099F08230A1F008958630A9F08730C9
:10071000B9F08430D1F4809180008F7D03C0809146
:1007200080008F7780938000089584B58F7702C012
:1007300084B58F7D84BD08958091B0008F7703C00C
:100740008091B0008F7D8093B0000895CF93DF93A8
:1007500090E0FC01E458FF4F2491FC01E057FF4F6B
:100760008491882361F190E0880F991FFC01E25584
:10077000FF4FC591D491FC01EC55FF4FA591B49169
:10078000611109C09FB7F8948881209582238883DE
:10079000EC912E230BC0623061F49FB7F89438813E
:1007A000822F809583238883EC912E2B2C939FBFDF
:1007B00006C08FB7F894E8812E2B28838FBFDF9176
:1007C000CF9108951F93CF93DF93282F30E0F90145
:1007D000E859FF4F8491F901E458FF4FD491F90192
:1007E000E057FF4FC491CC23C9F0162F81110E940E
:1007F0007D03EC2FF0E0EE0FFF1FEC55FF4FA591AE
:10080000B4918FB7F894111105C09C91ED2FE0952C
:10081000E92302C0EC91ED2BEC938FBFDF91CF91D8
:100820001F9108950E9442030E948700C3EFD4E005
:100830000E9401012097E1F30E94F304F9CFFC012B
:1008400024853585F901E05CFF4F808191813296E6
:1008500020813181821B930B8F7399270895DC01CE
:100860001C96ED91FC911D97DF01A05CBF4F2D916F
:100870003C91119712968D919C91119728173907E9
:1008800039F08D919C91E80FF91F808190E00895D7
:100890008FEF9FEF0895FC01A485B585FD01E05C15
:1008A000FF4F20813181329680819181281739074D
:1008B00079F080819181A80FB91F8C9120813181BD
:1008C0002F5F3F4F2F7333273183208390E00895AC
:1008D0008FEF9FEF0895FC0181A1882329F0A4895F
:1008E000B5898C9186FFFBCF11A208950F931F93BA
:1008F000CF93DF93FC01A685B7858D01005C1F4F68
:10090000E8018881998101968F739927AD014E5B2B
:100910005F4FEA012881398182179307D1F3E801FB
:1009200028813981A20FB31F6C93A685B785A05C7F
:10093000BF4F11969C938E93A689B7892C9181E025
:1009400090E0078C02C0880F991F0A94E2F7822B6F
:100950008C9381E081A30488F589E02D80818064F7
:10096000808381E090E0DF91CF911F910F910895F6
:1009700008951F920F920FB60F9211242F934F9349
:100980005F938F939F93EF93FF938091C00082FDBD
:100990001CC02091C6008091710290917202019654
:1009A0008F739927409173025091740284179507B1
:1009B00071F0E0917102F0917202EF5CFD4F2083C3
:1009C000909372028093710202C08091C600FF91E1
:1009D000EF919F918F915F914F912F910F900FBE4B
:1009E0000F901F9018958BEC91E00E941F04892BAB
:1009F00011F00C94B80408951F920F920FB60F9245
:100A000011242F933F938F939F93EF93FF93209104
:100A10002D0230912E0280912F02909130022817E2
:100A2000390731F48091C1008F7D8093C10014C0DB
:100A3000E0912F02F0913002E351FE4F208180912E
:100A40002F029091300201968F7399279093300274
:100A500080932F022093C600FF91EF919F918F9179
:100A60003F912F910F900FBE0F901F901895CF922E
:100A7000DF92EF92FF920F931F93CF93DF93EC01DE
:100A80006A017B014115514E6105710509F1EC893F
:100A9000FD8981E090E008A002C0880F991F0A94A8
:100AA000E2F7808360E079E08DE390E0A7019601B2
:100AB0000E94630789019A01015011092109310936
:100AC0003695279517950795980101151041A8F0BF
:100AD000EC89FD89108260E874E88EE190E0A7015E
:100AE00096010E946307DA01C9010197A109B109C2
:100AF000B695A795979587959C01E889F9893083E4
:100B0000EA89FB89208319A2EE89FF89408181E06F
:100B100090E09C010C8C02C0220F331F0A94E2F774
:100B2000242B2083EE89FF8940819C010D8C02C01B
:100B3000220F331F0A94E2F7242B2083EE89FF89CA
:100B400040819C010E8C02C0220F331F0A94E2F7F1
:100B5000242B2083EE89FF8920810F8C02C0880F0F
:100B6000991F0A94E2F7809582238083DF91CF91C9
:100B70001F910F91FF90EF90DF90CF900895EBECD5
:100B8000F1E01382128288EE93E0A0E0B0E084836B
:100B90009583A683B78385EB91E09183808381E37E
:100BA00092E0958784878DEE91E09787868785EC24
:100BB00090E0918B808B84EC90E0938B828B80EC27
:100BC00090E0958B848B81EC90E0978B868B82EC08
:100BD00090E0918F808F86EC90E0938F828F84E0FD
:100BE000848F83E0858F87E0868F85E0878F81E023
:100BF00080A30895CF92DF92EF92FF920F931F93FD
:100C0000CF93DF936C01EB017B01E40EF51E00E056
:100C100010E0CE15DF0561F06991D601ED91FC91F0
:100C20000190F081E02DC6010995080F191FF1CF41
:100C3000C801DF91CF911F910F91FF90EF90DF904E
:100C4000CF9008956115710579F0FB0101900020A6
:100C5000E9F73197AF01461B570BDC01ED91FC9191
:100C60000280F381E02D099480E090E008950C94D7
:100C70002206DC01ED91FC910190F081E02D0994B8
:100C80000F931F93CF93DF93EC016DE00E94390621
:100C90008C016AE0CE010E943906800F911FDF911E
:100CA000CF911F910F9108958F929F92AF92BF9213
:100CB000CF92DF92EF92FF920F931F93CF93DF9328
:100CC000CDB7DEB7A1970FB6F894DEBF0FBECDBF8C
:100CD0006C01142FE52FCB01022F19A2223008F44A
:100CE0000AE07E0121E2E20EF11C802E912CA12C63
:100CF000B12C612F7E2FA50194010E946307029FF2
:100D00001019112481E0E81AF1081A3014F4105D6A
:100D100001C0195CF7011083122FE32FCA01232BA6
:100D2000242B252B31F7B701C6010E942206A1967C
:100D30000FB6F894DEBF0FBECDBFDF91CF911F91EC
:100D40000F91FF90EF90DF90CF90BF90AF909F906A
:100D50008F900895CF92DF92EF92FF920F931F939F
:100D6000CF93DF93EC016A017B012115310579F402
:100D7000E881F9810190F081E02D642FDF91CF911E
:100D80001F910F91FF90EF90DF90CF9009942A3040
:100D90003105E9F477FF1AC06DE20E9439068C0133
:100DA00044275527BA014C195D096E097F092AE0CD
:100DB000CE010E945406800F911FDF91CF911F91A9
:100DC0000F91FF90EF90DF90CF9008952AE0B70148
:100DD000A601CE01DF91CF911F910F91FF90EF906F
:100DE000DF90CF900C9454069A01AB01770F660BFD
:100DF000770B0C94AA060F931F93CF93DF93EC010C
:100E00009A01AB01770F660B770B0E94AA068C0143
:100E1000CE010E944006800F911FDF91CF911F915C
:100E20000F9108954F925F926F927F92AF92BF920F
:100E3000CF92DF92EF92FF920F931F93CF93DF93A6
:100E4000CDB7DEB729013A019B01AC012419350960
:100E50004609570989899A89AB89BC89BC01CD01AA
:100E60006A197B098C099D090E945307A801970103
:100E700024193509460957090E948507CA01B90195
:100E80006A0D7B1D8C1D9D1DDF91CF911F910F91D0
:100E9000FF90EF90DF90CF90BF90AF907F906F90DA
:100EA0005F904F900895DB018F939F930E94A4075A
:100EB000BF91AF91A29F800D911DA39F900DB29FF6
:100EC000900D11240895A1E21A2EAA1BBB1BFD014F
:100ED0000DC0AA1FBB1FEE1FFF1FA217B307E40719
:100EE000F50720F0A21BB30BE40BF50B661F771F71
:100EF000881F991F1A9469F7609570958095909551
:100F00009B01AC01BD01CF010895052E97FB1EF496
:100F100000940E949C0757FD07D00E94630707FCBE
:100F200003D04EF40C949C07509540953095219534
:100F30003F4F4F4F5F4F0895909580957095619505
:100F40007F4F8F4F9F4F08950E94B507A59F900D2B
:100F5000B49F900DA49F800D911D11240895EE0F54
:100F6000FF1F0590F491E02D0994A29FB001B39F5B
:100F7000C001A39F700D811D1124911DB29F700DA2
:0C0F8000811D1124911D0895F894FFCFED
:100F8C000000000000000000000000000000010054
:100F9C000000000001000000000000000100010042
:100FAC000000010000000000000001000000010032
:100FBC000000010001000000000001000100010020
:100FCC000100000000000000010000000000010012
:100FDC000100000001000000010000000100010000
:100FEC0001000100000000000100010000000100F0
:100FFC0001000100010000000100010001000100DE
:10100C000E000C000B000A00090008000700060087
:10101C00014C44523A2000202D2000203D2000524B
:10102C00656C6179733A20004C44522000203A20C0
:10103C0000000000007604FA051F044B042F046B1B
:02104C0004009E
:00000001FF
