:100000000C944E000C9476000C9476000C947600C0
:100010000C9476000C9476000C9476000C94760088
:100020000C9476000C9476000C9476000C94760078
:100030000C9476000C9476000C9476000C94760068
:100040000C9431010C9476000C94A8020C94EB02F1
:100050000C9476000C9476000C9476000C94760048
:100060000C9476000C947600010204081020408065
:1000700001020408102001020408102004040404F2
:100080000404040402020202020203030303030342
:1000900000000000230026002900AE0311241FBE2B
:1000A000CFEFD8E0DEBFCDBF11E0A0E0B1E0EEE6DB
:1000B000FAE002C005900D92A031B107D9F721E016
:1000C000A0E1B1E001C01D92A73CB207E1F710E04A
:1000D000CEE4D0E004C02197FE010E942005CD347B
:1000E000D107C9F70E9401020C9435050C94000059
:1000F00040E855E260E070E08DE191E00C94260369
:1001000020E432E44FE050E061E082E00E949E0093
:10011000AB01BC0140931001509311016093120197
:10012000709313012AE030E08DE191E00E94E10438
:1001300064E170E080E090E00C94A0018F929F92C7
:10014000AF92BF92CF92DF92EF92FF920F931F93E5
:10015000CF93DF9390E0FC01E859FF4FA491FC019D
:10016000E458FF4F8491662311F0BA2F01C0B0E02C
:1001700089019A013F7090E0880F991F80579F4F27
:10018000480159014FEF841A940AA40AB40AC12CF9
:10019000D12C7601FC01C591D49168816A236B133F
:1001A0001AC05FEFC51AD50AE50AF50AC814D904C2
:1001B000EA04FB0479F745C0460157016FEF861A40
:1001C000960AA60AB60AC016D106E206F30609F494
:1001D00038C075016401FC01C591D49168816A231E
:1001E0006B13EACFB901A8014C195D096E097F09AB
:1001F0006A017B0120E030E0A901FC01C591D491A6
:1002000068816A236B130AC02C153D054E055F05F6
:10021000C1F02F5F3F4F4F4F5F4FEFCFA5E1B0E0F1
:100220000E941505DC01CB014096A11DB11DBC014A
:10023000CD0124E096958795779567952A95D1F716
:1002400003C060E070E0CB01DF91CF911F910F916F
:10025000FF90EF90DF90CF90BF90AF909F908F90E6
:1002600008951F920F920FB60F9211242F933F9370
:100270008F939F93AF93BF93809115019091160137
:10028000A0911701B09118013091140123E0230FC0
:100290002D3720F40196A11DB11D05C026E8230FBE
:1002A0000296A11DB11D2093140180931501909316
:1002B0001601A0931701B093180180911901909134
:1002C0001A01A0911B01B0911C010196A11DB11D45
:1002D0008093190190931A01A0931B01B0931C0104
:1002E000BF91AF919F918F913F912F910F900FBE32
:1002F0000F901F9018953FB7F89480911901909135
:100300001A01A0911B01B0911C0126B5A89B05C044
:100310002F3F19F00196A11DB11D3FBFBA2FA92F84
:10032000982F8827820F911DA11DB11DBC01CD0101
:1003300042E0660F771F881F991F4A95D1F70895ED
:10034000CF92DF92EF92FF92CF93DF936B017C010C
:100350000E947B01EB01C114D104E104F10479F0A6
:100360000E947B016C1B7D0B683E7340A0F381E013
:10037000C81AD108E108F108C851DC4FECCFDF9171
:10038000CF91FF90EF90DF90CF900895789484B54F
:10039000826084BD84B5816084BD85B5826085BD81
:1003A00085B5816085BDEEE6F0E080818160808367
:1003B000E1E8F0E01082808182608083808181604A
:1003C0008083E0E8F0E0808181608083E1EBF0E011
:1003D000808184608083E0EBF0E0808181608083B5
:1003E000EAE7F0E08081846080838081826080839E
:1003F0008081816080838081806880831092C100C9
:1004000008950E94C6010E947800C2EED2E00E94C8
:1004100080002097E1F30E94E202F9CFFC012485DD
:100420003585F901E05CFF4F808191813296208112
:100430003181821B930B8F7399270895DC011C96E1
:10044000ED91FC911D97DF01A05CBF4F2D913C9178
:10045000119712968D919C9111972817390739F0B1
:100460008D919C91E80FF91F808190E008958FEFA6
:100470009FEF0895FC01A485B585FD01E05CFF4F69
:10048000208131813296808191812817390779F056
:1004900080819181A80FB91F8C91208131812F5FBC
:1004A0003F4F2F7333273183208390E008958FEFE0
:1004B0009FEF0895FC0181A1882329F0A489B589C3
:1004C0008C9186FFFBCF11A208950F931F93CF93BA
:1004D000DF93FC01A685B7858D01005C1F4FE80105
:1004E0008881998101968F739927AD014E5B5F4F8B
:1004F000EA012881398182179307D1F3E801288125
:100500003981A20FB31F6C93A685B785A05CBF4F3E
:1005100011969C938E93A689B7892C9181E090E0E7
:10052000078C02C0880F991F0A94E2F7822B8C93E4
:1005300081E081A30488F589E02D80818064808337
:1005400081E090E0DF91CF911F910F910895089580
:100550001F920F920FB60F9211242F934F935F9318
:100560008F939F93EF93FF938091C00082FD1CC0F7
:100570002091C6008091C3019091C40101968F73B0
:1005800099274091C5015091C6018417950771F0D4
:10059000E091C301F091C401ED57FE4F2083909389
:1005A000C4018093C30102C08091C600FF91EF9106
:1005B0009F918F915F914F912F910F900FBE0F9050
:1005C0001F9018958DE191E00E940E02892B11F089
:1005D0000C94A70208951F920F920FB60F92112448
:1005E0002F933F938F939F93EF93FF9320917F01DE
:1005F0003091800180918101909182012817390703
:1006000031F48091C1008F7D8093C10014C0E091CE
:100610008101F0918201E15CFE4F20818091810196
:100620009091820101968F73992790938201809314
:1006300081012093C600FF91EF919F918F913F918F
:100640002F910F900FBE0F901F901895CF92DF92B1
:10065000EF92FF920F931F93CF93DF93EC016A0108
:100660007B014115514E6105710509F1EC89FD8948
:1006700081E090E008A002C0880F991F0A94E2F779
:10068000808360E079E08DE390E0A70196010E940D
:10069000F30489019A0101501109210931093695A4
:1006A000279517950795980101151041A8F0EC8939
:1006B000FD89108260E874E88EE190E0A701960160
:1006C0000E94F304DA01C9010197A109B109B695A5
:1006D000A795979587959C01E889F9893083EA89E0
:1006E000FB89208319A2EE89FF89408181E090E097
:1006F0009C010C8C02C0220F331F0A94E2F7242BBA
:100700002083EE89FF8940819C010D8C02C0220F5D
:10071000331F0A94E2F7242B2083EE89FF8940815E
:100720009C010E8C02C0220F331F0A94E2F7242B87
:100730002083EE89FF8920810F8C02C0880F991FCA
:100740000A94E2F7809582238083DF91CF911F91F5
:100750000F91FF90EF90DF90CF900895EDE1F1E0E1
:100760001382128288EE93E0A0E0B0E08483958348
:10077000A683B78384E091E09183808383E891E04E
:10078000958784878FE391E09787868785EC90E053
:10079000918B808B84EC90E0938B828B80EC90E04B
:1007A000958B848B81EC90E0978B868B82EC90E02C
:1007B000918F808F86EC90E0938F828F84E0848F7E
:1007C00083E0858F87E0868F85E0878F81E080A337
:1007D0000895CF92DF92EF92FF920F931F93CF93E2
:1007E000DF936C01EB017B01E40EF51E00E010E0ED
:1007F000CE15DF0561F06991D601ED91FC91019074
:10080000F081E02DC6010995080F191FF1CFC8012D
:10081000DF91CF911F910F91FF90EF90DF90CF90DC
:1008200008956115710579F0FB0101900020E9F749
:100830003197AF01461B570BDC01ED91FC91028013
:10084000F381E02D099480E090E00895DC01ED91C2
:10085000FC910190F081E02D09940F931F93CF93A9
:10086000DF93EC016DE00E9426048C016AE0CE016A
:100870000E942604800F911FDF91CF911F910F914D
:1008800008958F929F92AF92BF92CF92DF92EF9294
:10089000FF920F931F93CF93DF93CDB7DEB7A1974E
:1008A0000FB6F894DEBF0FBECDBF6C01142FE52F3D
:1008B000CB01022F19A2223008F40AE07E0121E2C6
:1008C000E20EF11C802E912CA12CB12C612F7E2FD9
:1008D000A50194010E94F304029F1019112481E0E4
:1008E000E81AF1081A3014F4105D01C0195CF70120
:1008F0001083122FE32FCA01232B242B252B31F732
:10090000B701C6010E941104A1960FB6F894DEBF8C
:100910000FBECDBFDF91CF911F910F91FF90EF9050
:10092000DF90CF90BF90AF909F908F900895CF921F
:10093000DF92EF92FF920F931F93CF93DF93EC011F
:100940006A017B012115310579F4E881F981019073
:10095000F081E02D642FDF91CF911F910F91FF90D7
:10096000EF90DF90CF9009942A303105E9F477FFBA
:100970001AC06DE20E9426048C0144275527BA0153
:100980004C195D096E097F092AE0CE010E944104DD
:10099000800F911FDF91CF911F910F91FF90EF90EA
:1009A000DF90CF9008952AE0B701A601CE01DF9134
:1009B000CF911F910F91FF90EF90DF90CF900C940B
:1009C00041040F931F93CF93DF93EC010E94970490
:1009D0008C01CE010E942D04800F911FDF91CF91D9
:1009E0001F910F910895A1E21A2EAA1BBB1BFD01B6
:1009F0000DC0AA1FBB1FEE1FFF1FA217B307E407FE
:100A0000F50720F0A21BB30BE40BF50B661F771F55
:100A1000881F991F1A9469F7609570958095909535
:100A20009B01AC01BD01CF0108950E942605A59F41
:100A3000900DB49F900DA49F800D911D11240895D9
:100A4000EE0FFF1F0590F491E02D0994A29FB001D5
:100A5000B39FC001A39F700D811D1124911DB29FF2
:0E0A6000700D811D1124911D0895F894FFCF93
:100A6E00000000006502E9030E023A021E025A025D
:00000001FF
