:1000000013C1000041C100003FC100003DC100001C
:100010003BC1000039C1000037C1000035C10000FC
:1000200033C1000031C100002FC100002DC100000C
:100030002BC1000029C1000027C1000025C100001C
:1000400023C1000021C100001FC100001DC100002C
:100050001BC1000019C1000017C100000C94EA0880
:1000600013C1000004C40000E6C400000DC100007C
:100070000BC1000009C1000007C1000005C100005C
:1000800003C1000001C10000FFC00000FDC000006E
:1000900021C400000FC50000F7C00000F5C000003B
:1000A000F3C00000F1C00000EFC00000EDC0000090
:1000B000EBC00000E9C00000E7C00000E5C00000A0
:1000C000E3C00000E1C00000DFC0000036C4000053
:1000D00030C50000D9C0000063C4000069C500003D
:1000E000D3C00000AC02AF02A202A602E602B30235
:1000F000B702BD02C102C502CB02CF02D302E602A3
:10010000D902DD02E1020000090A02080B0C0D070A
:1001100006030401000000000000000000000000D1
:1001200000000000000000000000000000000000CF
:10013000000011100F00000000000000000000008F
:10014000000000000000000000000000010210207C
:1001500020080810204010204080020102010804FD
:100160000201010204081020408080402010080491
:1001700002018004020180402010080402010804EA
:10018000020101020408102040800102040810202E
:100190004080050505050705080808080202020257
:1001A0000A0A080804040404010101010101010113
:1001B0000303030303030303040707070C0C0C0CDE
:1001C0000C0C0C0C020202020606060606060606C7
:1001D0000B0B0B0B0B0B0B0B00002000230026005E
:1001E00029002C002F00320000010000030106014D
:1001F000090100002200250028002B002E003100FC
:10020000340002010000050108010B01000021007B
:10021000240027002A002D003000330001010000D7
:10022000040107010A01960611241FBECFEFD1E297
:10023000DEBFCDBF00E00CBF12E0A0E0B2E0E8E816
:10024000F3E100E00BBF02C007900D92A033B107AD
:10025000D9F714E0A0E3B2E001C01D92A93FB107B5
:10026000E1F712E0C8E2D2E000E006C022970109FF
:10027000FE010BBF0E94BE09C632D10780E008070D
:10028000A9F73BD20C94C209BBCECF93C2E060E089
:100290008C2F9DD1CF5FC231D1F761E08C2F97D1E8
:1002A000CF5FCA31D1F760E08091000290D140E881
:1002B00055E260E070E08EEA92E0CF91B8C48F9290
:1002C0009F92AF92BF92CF92DF92EF92FF920F93E5
:1002D0001F93CF93DF93CDB7DEB7A8970FB6F894EF
:1002E000DEBF0FBECDBF80911002898B80910F02BF
:1002F0008A8B80910E028B8B80910D028C8B80916A
:100300000C028D8B80910B028E8B80910A028F8B59
:1003100080910902888F80910802898F809107025D
:100320008A8F809106028B8F809105028C8F80913D
:1003300004028D8F809103028E8F809102028F8F35
:100340008091010288A380914702898380914602AF
:100350008A83809145028B83809144028C838091B3
:1003600043028D83809142028E83809141028F836C
:1003700080914002888780913F02898780913E0268
:100380008A8780913D028B8780913C028C87809187
:100390003B028D8780913A028E87809139028F8748
:1003A00080913802888B8E010F5E1F4F6E0121E213
:1003B000C20ED11CCE0101967C01F80181918F0102
:1003C00074D1F70181937F010C151D05B1F7809160
:1003D000370289A3809136028AA3809135028BA3CC
:1003E000809134028CA3809133028DA380913202DC
:1003F0008EA3809131028FA38091300288A78091D3
:10040000000253D19E01275D3F4F6901892B09F0FE
:100410003EC0CE0109967C01FE0131965F01F501D7
:1004200091905F01992029F061E0F70180818111AD
:1004300001C060E0F80181918F0102D14AE050E0F3
:10044000692D8EEA92E0C0D661E172E08EEA92E018
:10045000E1D5F70181907F014AE050E0682D8EEAF6
:1004600092E0B2D666E172E08EEA92E0D3D59920AE
:1004700019F061E0811001C060E070E04AE050E0F6
:100480008EEA92E07FD60C151D0549F63EC09E010E
:10049000275F3F4F7901CE0101965C01F5019190F4
:1004A0005F0161E0911005C0F7018081811101C0F9
:1004B00060E0F80181918F01C3D04AE050E0692DDE
:1004C0008EEA92E081D66AE172E08EEA92E0A2D5ED
:1004D000F70181907F014AE050E0682D8EEA92E0BA
:1004E00073D666E172E08EEA92E094D561E09110F5
:1004F00003C0811001C060E070E04AE050E08EEA85
:1005000092E040D60C151D0549F6A8960FB6F89452
:10051000DEBF0FBECDBFDF91CF911F910F91FF9036
:10052000EF90DF90CF90BF90AF909F908F90089505
:1005300090E0FC013197E131F10508F047C0EE5839
:10054000FF4F16C7809180008F7703C08091800095
:100550008F7D80938000089584B58F7702C084B525
:100560008F7D84BD08958091B0008F7703C0809106
:10057000B0008F7D8093B0000895809190008F77B8
:1005800007C0809190008F7D03C080919000877F8D
:100590008093900008958091A0008F7707C080918C
:1005A000A0008F7D03C08091A000877F8093A00072
:1005B0000895809120018F7707C0809120018F7D61
:1005C00003C080912001877F809320010895CF93FD
:1005D000DF9390E0FC01E45BFE4F2491FC01EE56BA
:1005E000FE4F8491882349F190E0880F991FFC0108
:1005F000E45FFD4FA591B4918E509E4FFC01C591D3
:10060000D4919FB7611108C0F8948C9120958223F2
:100610008C93888182230AC0623051F4F8948C91C3
:10062000322F309583238C938881822B888304C05A
:10063000F8948C91822B8C939FBFDF91CF9108957A
:100640000F931F93CF93DF931F92CDB7DEB7282F61
:1006500030E0F901EA5FFE4F8491F901E45BFE4F5F
:100660001491F901EE56FE4F04910023C1F0882346
:1006700019F069835DDF6981E02FF0E0EE0FFF1F65
:10068000EE50FE4FA591B4919FB7F8948C916111F3
:1006900003C01095812301C0812B8C939FBF0F90C5
:1006A000DF91CF911F910F910895CF93DF93282F62
:1006B00030E0F901EA5FFE4F8491F901E45BFE4FFF
:1006C000D491F901EE56FE4FC491CC2389F08111EB
:1006D0002FDFEC2FF0E0EE0FFF1FE852FE4FA59149
:1006E000B4912C912D2381E090E021F480E002C0B0
:1006F00080E090E0DF91CF910895B6D5C6DDC2E0ED
:10070000D5E0DDDD2097E9F37DD1FBCFFC01248529
:100710003585F901E05CFF4F80819181F901EE5B45
:10072000FF4F20813181821B930B8F73992708958E
:10073000FC0184859585FC01E05CFF4F408151817F
:10074000FC01EE5BFF4F208131814217530741F0DE
:100750000190F081E02DE80FF91F808190E008956D
:100760008FEF9FEF0895FC0184859585FC01E05C87
:10077000FF4F40815181FC01EE5BFF4F20813181B1
:100780004217530779F0A081B181A80FB91F8C914E
:10079000208131812F5F3F4F2F7333273183208397
:1007A00090E008958FEF9FEF0895FC0181A18823C9
:1007B00029F0A489B5898C9186FFFBCF11A20895F9
:1007C000CF93DF93FC0126853785D901A05CBF4F0D
:1007D0008D919C91119701968F739927E901CE5BBA
:1007E000DF4F4881598184179507D9F30D90BC914B
:1007F000A02DA20FB31F6C93A685B785A05CBF4F39
:1008000011969C938E93A689B7892C9181E090E0F4
:10081000078C02C0880F991F0A94E2F7282B2C93AB
:1008200081E081A30488F589E02D80818064808344
:1008300081E090E0DF91CF910895FB01E05CFF4FF4
:10084000208131812F5F3F4F2F733327DB01AE5B58
:10085000BF4F4D915C912417350739F0A081B181CC
:10086000A60FB71F8C9331832083089508951F929C
:100870000F920FB60F9211240BB60F922F933F9346
:100880004F935F936F937F938F939F93AF93BF9398
:10089000EF93FF938091C00082FD06C08091C60057
:1008A0006CEA74E0CADF02C08091C600FF91EF914C
:1008B000BF91AF919F918F917F916F915F914F9178
:1008C0003F912F910F900BBE0F900FBE0F901F9076
:1008D000189508951F920F920FB60F9211240BB620
:1008E0000F922F933F934F935F936F937F938F93C9
:1008F0009F93AF93BF93EF93FF938091C80082FDC6
:1009000006C08091CE0064E274E097DF02C080915F
:10091000CE00FF91EF91BF91AF919F918F917F9109
:100920006F915F914F913F912F910F900BBE0F9060
:100930000FBE0F901F90189508951F920F920FB63B
:100940000F9211240BB60F922F933F934F935F9307
:100950006F937F938F939F93AF93BF93EF93FF9387
:100960008091D00082FD06C08091D6006CE973E0D2
:1009700064DF02C08091D600FF91EF91BF91AF91EB
:100980009F918F917F916F915F914F913F912F91A7
:100990000F900BBE0F900FBE0F901F9018950895EB
:1009A0001F920F920FB60F9211240BB60F922F9336
:1009B0003F934F935F936F937F938F939F93AF93E7
:1009C000BF93EF93FF938091300182FD06C0809129
:1009D000360164E173E031DF02C080913601FF919E
:1009E000EF91BF91AF919F918F917F916F915F91A7
:1009F0004F913F912F910F900BBE0F900FBE0F9014
:100A00001F9018958EEA92E081DE892B09F02EDF87
:100A10008CE892E07BDE892B09F05BDF8AE692E0CE
:100A200075DE892B09F088DF88E492E06FDE892B80
:100A300009F0B5CF08951F920F920FB60F921124AF
:100A40000BB60F922F933F938F939F93EF93FF9348
:100A50002091A8043091A9048091AA049091AB043C
:100A60002817390731F48091C1008F7D8093C10030
:100A700014C0E091AA04F091AB04E859FB4F208127
:100A80008091AA049091AB0401968F73992790935B
:100A9000AB048093AA042093C600FF91EF919F912D
:100AA0008F913F912F910F900BBE0F900FBE0F9023
:100AB0001F9018951F920F920FB60F9211240BB62C
:100AC0000F922F933F938F939F93EF93FF932091D8
:100AD000200430912104809122049091230428174E
:100AE000390731F48091C9008F7D8093C90014C00B
:100AF000E0912204F0912304E052FC4F2081809188
:100B000022049091230401968F73992790932304D4
:100B1000809322042093CE00FF91EF919F918F91BB
:100B20003F912F910F900BBE0F900FBE0F901F9013
:100B300018951F920F920FB60F9211240BB60F92B9
:100B40002F933F938F939F93EF93FF93209198035D
:100B50003091990380919A0390919B03281739074C
:100B600031F48091D1008F7D8093D10014C0E09149
:100B70009A03F0919B03E85AFC4F208180919A03DD
:100B800090919B0301968F73992790939B03809379
:100B90009A032093D600FF91EF919F918F913F91FF
:100BA0002F910F900BBE0F900FBE0F901F901895B6
:100BB0001F920F920FB60F9211240BB60F922F9324
:100BC0003F938F939F93EF93FF9320911003309166
:100BD000110380911203909113032817390731F400
:100BE000809131018F7D8093310114C0E091120317
:100BF000F0911303E053FD4F2081809112039091F7
:100C0000130301968F739927909313038093120314
:100C100020933601FF91EF919F918F913F912F91FA
:100C20000F900BBE0F900FBE0F901F901895CF9294
:100C3000DF92EF92FF92CF93DF93EC016A017B0189
:100C4000411581EE580761057105F1F0EC89FD89C8
:100C500081E090E008A002C0880F991F0A94E2F793
:100C6000808360E079E08DE390E0A70196015ED398
:100C700021503109410951095695479537952795D6
:100C8000211580E1380790F0EC89FD89108260E839
:100C900074E88EE190E0A701960148D32150310914
:100CA000410951095695479537952795E889F9895E
:100CB0003083EA89FB89208319A2EE89FF8940816C
:100CC00081E090E09C010C8C02C0220F331F0A943B
:100CD000E2F7422B4083EE89FF8940819C010D8C15
:100CE00002C0220F331F0A94E2F7422B4083EE89A1
:100CF000FF8940819C010E8C02C0220F331F0A9491
:100D0000E2F7422B4083EE89FF8920810F8C02C0DD
:100D1000880F991F0A94E2F7809582238083DF91E0
:100D2000CF91FF90EF90DF90CF900895CF931092E6
:100D3000B1021092B00288EE93E0A0E0B0E08093A0
:100D4000B2029093B302A093B402B093B50223E22F
:100D500032E03093AF022093AE024CEA54E050935D
:100D6000BB024093BA0248E654E05093BD02409360
:100D7000BC0245EC50E05093BF024093BE0244ECED
:100D800050E05093C1024093C00240EC50E05093B9
:100D9000C3024093C20241EC50E05093C50240931D
:100DA000C40242EC50E05093C7024093C60246ECA6
:100DB00050E05093C9024093C802C4E0C093CA02F5
:100DC000F3E0F093CB02E7E0E093CC0275E07093A0
:100DD000CD0261E06093CE0210928F0210928E02DB
:100DE0008093900290939102A0939202B093930209
:100DF00030938D0220938C0244E254E05093990288
:100E00004093980240EE53E050939B0240939A0225
:100E10004DEC50E050939D0240939C024CEC50E00E
:100E200050939F0240939E0248EC50E05093A102E1
:100E30004093A00249EC50E05093A3024093A202D9
:100E40004AEC50E05093A5024093A4024EEC50E0CF
:100E50005093A7024093A602C093A802F093A90260
:100E6000E093AA027093AB026093AC0210926D0201
:100E700010926C0280936E0290936F02A0937002A6
:100E8000B093710230936B0220936A024CE953E0F5
:100E9000509377024093760248E553E050937902ED
:100EA0004093780245ED50E050937B0240937A02E4
:100EB00044ED50E050937D0240937C0240ED50E0C1
:100EC00050937F0240937E0241ED50E050938102A7
:100ED0004093800242ED50E050938302409382029F
:100EE00046ED50E05093850240938402C093860201
:100EF000F0938702E09388027093890260938A02DC
:100F000010924B0210924A0280934C0290934D0231
:100F1000A0934E02B0934F023093490220934802AF
:100F200084E193E0909355028093540280ED92E027
:100F3000909357028093560285E391E09093590273
:100F40008093580284E391E090935B0280935A026D
:100F500080E391E090935D0280935C0281E391E0F5
:100F600090935F0280935E0282E391E0909361022E
:100F70008093600286E391E0909363028093620223
:100F8000C0936402F0936502E09366027093670277
:100F900060936802CF910895CF92DF92EF92FF9213
:100FA0000F931F93CF93DF936C017A01EB01E60E51
:100FB000F71E00E010E0CE15DF0561F06991D60163
:100FC000ED91FC910190F081E02DC6011995080F7B
:100FD000191FF1CFC801DF91CF911F910F91FF90A1
:100FE000EF90DF90CF9008956115710581F0DB01DE
:100FF0000D900020E9F7AD0141505109461B570BF8
:10100000DC01ED91FC910280F381E02D199480E0E8
:1010100090E00895E9CFDC01ED91FC910190F08121
:10102000E02D19940F931F93CF93DF93EC016DE0A4
:10103000F2DF8C016AE0CE01EEDF800F911FDF91BD
:10104000CF911F910F9108958F929F92AF92BF926F
:10105000CF92DF92EF92FF920F931F93CF93DF9384
:10106000CDB7DEB7A1970FB6F894DEBF0FBECDBFE8
:101070007C01C42EE52FCB01D22E19A221E02D1523
:1010800010F02AE0D22E8E010F5D1F4F8D2C912C77
:10109000A12CB12C6C2D7E2FA501940147D18C2D54
:1010A000D29E80191124015011098A3014F4805DF8
:1010B00001C0895CF8018083211531054105510586
:1010C00021F0C22EE32FCA01E5CFB801C7018CDFA2
:1010D000A1960FB6F894DEBF0FBECDBFDF91CF91C2
:1010E0001F910F91FF90EF90DF90CF90BF90AF9046
:1010F0009F908F900895CF92DF92EF92FF920F937F
:101100001F93CF93DF93EC016A017B012115310519
:1011100079F4E881F9810190F081E02D642FDF916D
:10112000CF911F910F91FF90EF90DF90CF90199486
:101130002A303105D9F477FF18C06DE26CDF8C01DD
:1011400044275527BA014C195D096E097F092AE029
:10115000CE017ADF800F911FDF91CF911F910F9108
:10116000FF90EF90DF90CF9008952AE0B701A6019D
:10117000CE01DF91CF911F910F91FF90EF90DF9003
:10118000CF9062CF0F931F93CF93DF93EC019A011F
:10119000AB01662757FD6095762FADDF8C01CE0140
:1011A00041DF800F911FDF91CF911F910F91089523
:1011B0002115310541F4DC01ED91FC910190F081A4
:1011C000E02D642F199440CF9A01462F50E060E043
:1011D00070E0EECF1F920F920FB60F9211242F9353
:1011E0003F938F939F93AF93BF938091F10490911E
:1011F000F204A091F304B091F4043091F00423E0E0
:10120000230F2D3720F40196A11DB11D05C026E83E
:10121000230F0296A11DB11D2093F0048093F104C9
:101220009093F204A093F304B093F4048091F50436
:101230009091F604A091F704B091F8040196A11DD5
:10124000B11D8093F5049093F604A093F704B09336
:10125000F804BF91AF919F918F913F912F910F9083
:101260000FBE0F901F901895789484B5826084BD4E
:1012700084B5816084BD85B5826085BD85B581609A
:1012800085BDEEE6F0E0808181608083E1E8F0E0FA
:101290001082808182608083808181608083E0E829
:1012A000F0E0808181608083E1EBF0E08081846008
:1012B0008083E0EBF0E0808181608083E1E9F0E011
:1012C000808182608083808181608083E0E9F0E0BA
:1012D000808181608083E1EAF0E0808182608083A8
:1012E000808181608083E0EAF0E08081816080839A
:1012F000E1E2F1E08081826080838081816080838F
:10130000E0E2F1E0808181608083EAE7F0E08081C3
:10131000846080838081826080838081816080831B
:101320008081806880831092C1000895A1E21A2E06
:10133000AA1BBB1BFD010DC0AA1FBB1FEE1FFF1F79
:10134000A217B307E407F50720F0A21BB30BE40BC9
:10135000F50B661F771F881F991F1A9469F7609510
:101360007095809590959B01AC01BD01CF010895CA
:10137000EE0FFF1F0590F491E02D19940790F69160
:08138000E02D1994F894FFCF51
:101388001A11100F0E0D0C0B0A09080706050403A5
:10139800022026262000203D2000207C7C20000002
:1013A800000000E003CC078603B3039803D50300CD
:00000001FF
