:1000000006C1000032C1000030C100002EC1000056
:100010002CC100002AC1000028C1000026C1000038
:1000200024C1000022C1000020C100001EC1000048
:100030001CC100001AC1000018C1000016C1000058
:1000400014C1000012C1000010C100000EC1000068
:100050000CC100000AC1000008C1000044C100003A
:1000600004C10000AAC300008CC40000FEC0000050
:10007000FCC00000FAC00000F8C00000F6C000009C
:10008000F4C00000F2C00000F0C00000EEC00000AC
:10009000C7C30000B5C40000E8C00000E6C000000F
:1000A000E4C00000E2C00000E0C00000DEC00000CC
:1000B000DCC00000DAC00000D8C00000D6C00000DC
:1000C000D4C00000D2C00000D0C00000DCC30000DB
:1000D000D6C40000CAC0000009C400000FC500005B
:1000E000C4C000007A027D0270027402B402810270
:1000F00085028B028F02930299029D02A102B40233
:10010000A702AB02AF020000090A02080B0C0D07A0
:1001100006030401000000000000000000000000D1
:1001200000000000000000000000000000000000CF
:10013000000011100F00000000000000000000008F
:10014000000000000000000000000000010210207C
:1001500020080810204010204080020102010804FD
:100160000201010204081020408080402010080491
:1001700002018004020180402010080402010804EA
:10018000020101020408102040800102040810202E
:100190004080050505050705080808080202020257
:1001A0000A0A080804040404010101010101010113
:1001B0000303030303030303040707070C0C0C0CDE
:1001C0000C0C0C0C020202020606060606060606C7
:1001D0000B0B0B0B0B0B0B0B000022002500280058
:1001E0002B002E003100340002010000050108013F
:1001F0000B0100002100240027002A002D00300000
:10020000330001010000040107010A013C0611242A
:100210001FBECFEFD1E2DEBFCDBF00E00CBF12E0CA
:10022000A0E0B2E0E8E5F1E100E00BBF02C007901A
:100230000D92A232B107D9F714E0A2E2B2E001C0F8
:100240001D92A33DB107E1F712E0CEE0D2E000E05D
:1002500005C022970109FE010BBF78D7CC30D1072A
:1002600080E00807B1F7EFD175C7CACE61E0809191
:1002700000027BD140E855E260E070E081E992E065
:100280007CC4CF93DF93C0E0D2E061E08881A6D147
:1002900060910002709101024AE050E081E992E031
:1002A00026D762E072E081E992E073D668EE73E0EF
:1002B00080E090E085D060E0888190D1609100027C
:1002C000709101024AE050E081E992E010D769E0C4
:1002D00072E081E992E05DD668EE73E080E090E044
:1002E000DF91CF916DC01F920F920FB60F92112424
:1002F0002F933F938F939F93AF93BF93809123024C
:1003000090912402A0912502B09126023091220200
:1003100023E0230F2D3720F40196A11DB11D05C048
:1003200026E8230F0296A11DB11D2093220280937F
:10033000230290932402A0932502B0932602809179
:10034000270290912802A0912902B0912A020196D9
:10035000A11DB11D8093270290932802A09329022A
:10036000B0932A02BF91AF919F918F913F912F91AE
:100370000F900FBE0F901F9018953FB7F894809183
:10038000270290912802A0912902B0912A0226B555
:10039000A89B05C02F3F19F00196A11DB11D3FBFBD
:1003A0006627782F892F9A2F620F711D811D911D4D
:1003B00042E0660F771F881F991F4A95D1F708956D
:1003C000CF92DF92EF92FF92CF93DF936B017C018C
:1003D000D4DFEB01C114D104E104F10471F0CDDFED
:1003E0006C1B7D0B683E7340A8F381E0C81AD108EE
:1003F000E108F108C851DC4FEDCFDF91CF91FF90BC
:10040000EF90DF90CF900895789484B5826084BD9A
:1004100084B5816084BD85B5826085BD85B5816008
:1004200085BDEEE6F0E0808181608083E1E8F0E068
:100430001082808182608083808181608083E0E897
:10044000F0E0808181608083E1EBF0E08081846076
:100450008083E0EBF0E0808181608083E1E9F0E07F
:10046000808182608083808181608083E0E9F0E028
:10047000808181608083E1EAF0E080818260808316
:10048000808181608083E0EAF0E080818160808308
:10049000E1E2F1E0808182608083808181608083FD
:1004A000E0E2F1E0808181608083EAE7F0E0808132
:1004B000846080838081826080838081816080838A
:1004C0008081806880831092C100089590E0FC01D3
:1004D0003197E131F10508F047C0EE58FF4F30C6C3
:1004E000809180008F7703C0809180008F7D809302
:1004F0008000089584B58F7702C084B58F7D84BD58
:1005000008958091B0008F7703C08091B0008F7DF7
:100510008093B0000895809190008F7707C08091FC
:1005200090008F7D03C080919000877F8093900022
:1005300008958091A0008F7707C08091A0008F7DE3
:1005400003C08091A000877F8093A00008958091D0
:1005500020018F7707C0809120018F7D03C080919B
:100560002001877F809320010895CF93DF9390E04F
:10057000FC01E45BFE4F2491FC01EE56FE4F84919A
:10058000882349F190E0880F991FFC01EE50FE4F3F
:10059000A591B49188529E4FFC01C591D4919FB70B
:1005A000611108C0F8948C91209582238C938881E6
:1005B00082230AC0623051F4F8948C91322F309526
:1005C00083238C938881822B888304C0F8948C9138
:1005D000822B8C939FBFDF91CF9108950F931F9330
:1005E000CF93DF931F92CDB7DEB7282F30E0F9010C
:1005F000EA5FFE4F8491F901E45BFE4F1491F9012B
:10060000EE56FE4F04910023C1F0882319F0698350
:100610005DDF6981E02FF0E0EE0FFF1FE852FE4F33
:10062000A591B4919FB7F8948C91611103C0109576
:10063000812301C0812B8C939FBF0F90DF91CF91BD
:100640001F910F910895E0DE11DEC8EAD4E019DEB3
:100650002097E9F37DD1FBCFFC0124853585F90195
:10066000E05CFF4F80819181F901EE5BFF4F2081BB
:100670003181821B930B8F7399270895FC01848528
:100680009585FC01E05CFF4F40815181FC01EE5BF0
:10069000FF4F208131814217530741F00190F081D3
:1006A000E02DE80FF91F808190E008958FEF9FEF14
:1006B0000895FC0184859585FC01E05CFF4F408135
:1006C0005181FC01EE5BFF4F2081318142175307BE
:1006D00079F0A081B181A80FB91F8C91208131815F
:1006E0002F5F3F4F2F7333273183208390E008958E
:1006F0008FEF9FEF0895FC0181A1882329F0A48941
:10070000B5898C9186FFFBCF11A20895CF93DF931B
:10071000FC0126853785D901A05CBF4F8D919C9146
:10072000119701968F739927E901CE5BDF4F4881BE
:10073000598184179507D9F30D90BC91A02DA20F74
:10074000B31F6C93A685B785A05CBF4F11969C9391
:100750008E93A689B7892C9181E090E0078C02C026
:10076000880F991F0A94E2F7282B2C9381E081A32C
:100770000488F589E02D80818064808381E090E0A9
:10078000DF91CF910895FB01E05CFF4F2081318123
:100790002F5F3F4F2F733327DB01AE5BBF4F4D9170
:1007A0005C912417350739F0A081B181A60FB71FDE
:1007B0008C9331832083089508951F920F920FB672
:1007C0000F9211240BB60F922F933F934F935F9389
:1007D0006F937F938F939F93AF93BF93EF93FF9309
:1007E0008091C00082FD06C08091C6006FE874E071
:1007F000CADF02C08091C600FF91EF91BF91AF9117
:100800009F918F917F916F915F914F913F912F9128
:100810000F900BBE0F900FBE0F901F90189508956C
:100820001F920F920FB60F9211240BB60F922F93B7
:100830003F934F935F936F937F938F939F93AF9368
:10084000BF93EF93FF938091C80082FD06C0809113
:10085000CE0067E074E097DF02C08091CE00FF9188
:10086000EF91BF91AF919F918F917F916F915F9128
:100870004F913F912F910F900BBE0F900FBE0F9095
:100880001F90189508951F920F920FB60F92112482
:100890000BB60F922F933F934F935F936F937F937A
:1008A0008F939F93AF93BF93EF93FF938091D0006B
:1008B00082FD06C08091D6006FE773E064DF02C05E
:1008C0008091D600FF91EF91BF91AF919F918F9151
:1008D0007F916F915F914F913F912F910F900BBE40
:1008E0000F900FBE0F901F90189508951F920F92B2
:1008F0000FB60F9211240BB60F922F933F934F9385
:100900005F936F937F938F939F93AF93BF93EF9377
:10091000FF938091300182FD06C08091360167EF20
:1009200072E031DF02C080913601FF91EF91BF91FB
:10093000AF919F918F917F916F915F914F913F9177
:100940002F910F900BBE0F900FBE0F901F90189518
:1009500081E992E081DE892B09F02EDF8FE692E0BB
:100960007BDE892B09F05BDF8DE492E075DE892B5D
:1009700009F088DF8BE292E06FDE892B09F0B5CFBA
:1009800008951F920F920FB60F9211240BB60F927B
:100990002F933F938F939F93EF93FF9320918B041B
:1009A00030918C0480918D0490918E042817390722
:1009B00031F48091C1008F7D8093C10014C0E0911B
:1009C0008D04F0918E04E55BFB4F208180918D04B6
:1009D00090918E0401968F73992790938E04809343
:1009E0008D042093C600FF91EF919F918F913F91CD
:1009F0002F910F900BBE0F900FBE0F901F90189568
:100A00001F920F920FB60F9211240BB60F922F93D5
:100A10003F938F939F93EF93FF9320910304309123
:100A2000040480910504909106042817390731F4D5
:100A30008091C9008F7D8093C90014C0E0910504A6
:100A4000F0910604ED53FC4F2081809105049091B4
:100A5000060401968F7399279093060480930504EA
:100A60002093CE00FF91EF919F918F913F912F9115
:100A70000F900BBE0F900FBE0F901F9018951F92F6
:100A80000F920FB60F9211240BB60F922F933F9334
:100A90008F939F93EF93FF9320917B0330917C037F
:100AA00080917D0390917E032817390731F480915E
:100AB000D1008F7D8093D10014C0E0917D03F0912F
:100AC0007E03E55CFC4F208180917D0390917E0345
:100AD00001968F73992790937E0380937D032093D3
:100AE000D600FF91EF919F918F913F912F910F90A1
:100AF0000BBE0F900FBE0F901F9018951F920F9274
:100B00000FB60F9211240BB60F922F933F938F9332
:100B10009F93EF93FF932091F3023091F402809121
:100B2000F5029091F6022817390731F480913101CE
:100B30008F7D8093310114C0E091F502F091F602AF
:100B4000ED54FD4F20818091F5029091F6020196BF
:100B50008F7399279093F6028093F50220933601C4
:100B6000FF91EF919F918F913F912F910F900BBE2D
:100B70000F900FBE0F901F901895CF92DF92EF92BB
:100B8000FF92CF93DF93EC016A017B01411581EE67
:100B9000580761057105F1F0EC89FD8981E090E06D
:100BA00008A002C0880F991F0A94E2F7808360E0D2
:100BB00079E08DE390E0A7019601A0D221503109A0
:100BC000410951095695479537952795211580E19B
:100BD000380790F0EC89FD89108260E874E88EE1B6
:100BE00090E0A70196018AD22150310941095109AB
:100BF0005695479537952795E889F9893083EA898D
:100C0000FB89208319A2EE89FF89408181E090E071
:100C10009C010C8C02C0220F331F0A94E2F7422B76
:100C20004083EE89FF8940819C010D8C02C0220F18
:100C3000331F0A94E2F7422B4083EE89FF894081FB
:100C40009C010E8C02C0220F331F0A94E2F7422B44
:100C50004083EE89FF8920810F8C02C0880F991F85
:100C60000A94E2F7809582238083DF91CF91FF90F1
:100C7000EF90DF90CF900895CF931092940210924E
:100C8000930288EE93E0A0E0B0E080939502909309
:100C90009602A0939702B093980226E132E0309337
:100CA0009202209391024FE854E050939E024093A9
:100CB0009D024BE454E05093A00240939F0245EC08
:100CC00050E05093A2024093A10244EC50E05093B4
:100CD000A4024093A30240EC50E05093A60240933C
:100CE000A50241EC50E05093A8024093A70242ECC9
:100CF00050E05093AA024093A90246EC50E0509372
:100D0000AC024093AB02C4E0C093AD02F3E0F093B9
:100D1000AE02E7E0E093AF0275E07093B00261E0ED
:100D20006093B1021092720210927102809373026A
:100D300090937402A0937502B09376023093700280
:100D400020936F0247E054E050937C0240937B0273
:100D500043EC53E050937E0240937D024DEC50E013
:100D60005093800240937F024CEC50E050938202FB
:100D70004093810248EC50E05093840240938302F8
:100D800049EC50E050938602409385024AEC50E0D3
:100D900050938802409387024EEC50E050938A02B1
:100DA00040938902C0938B02F0938C02E0938D02F2
:100DB00070938E0260938F021092500210924F0235
:100DC0008093510290935202A0935302B093540225
:100DD00030934E0220934D024FE753E050935A0256
:100DE000409359024BE353E050935C0240935B0203
:100DF00045ED50E050935E0240935D0244ED50E0BB
:100E00005093600240935F0240ED50E050936202C5
:100E10004093610241ED50E05093640240936302BD
:100E200042ED50E0509366024093650246ED50E07B
:100E30005093680240936702C0936902F0936A027C
:100E4000E0936B0270936C0260936D0210922E021D
:100E500010922D0280932F0290933002A0933102C2
:100E6000B093320230932C0220932B0287EF92E052
:100E7000909338028093370283EB92E090933A028A
:100E80008093390285E391E090933C0280933B028A
:100E900084E391E090933E0280933D0280E391E0F1
:100EA0009093400280933F0281E391E0909342024D
:100EB0008093410282E391E0909344028093430245
:100EC00086E391E09093460280934502C0934702E7
:100ED000F0934802E093490270934A0260934B02F8
:100EE000CF910895CF92DF92EF92FF920F931F93CD
:100EF000CF93DF936C017A01EB01E60EF71E00E061
:100F000010E0CE15DF0561F06991D601ED91FC91FD
:100F10000190F081E02DC6011995080F191FF1CF3E
:100F2000C801DF91CF911F910F91FF90EF90DF905B
:100F3000CF9008956115710581F0DB010D900020BF
:100F4000E9F7AD0141505109461B570BDC01ED910A
:100F5000FC910280F381E02D199480E090E00895E7
:100F6000DC01ED91FC910190F081E02D19940F933B
:100F70001F93CF93DF93EC016DE0F2DF8C016AE009
:100F8000CE01EEDF800F911FDF91CF911F910F9166
:100F900008950F931F93CF93DF93EC01CBDF8C0168
:100FA000CE01E5DF800F911FDF91CF911F910F914F
:100FB00008958F929F92AF92BF92CF92DF92EF925D
:100FC000FF920F931F93CF93DF93CDB7DEB7A19717
:100FD0000FB6F894DEBF0FBECDBF7C01C42EE52F47
:100FE000CB01D22E19A221E02D1510F02AE0D22E2D
:100FF0008E010F5D1F4F8D2C912CA12CB12C6C2DCF
:101000007E2FA50194017AD08C2DD29E80191124B7
:10101000015011098A3014F4805D01C0895CF80127
:101020008083211531054105510521F0C22EE32FA2
:10103000CA01E5CFB801C7017DDFA1960FB6F894CC
:10104000DEBF0FBECDBFDF91CF911F910F91FF90FB
:10105000EF90DF90CF90BF90AF909F908F900895CA
:10106000CF92DF92EF92FF920F931F93CF93DF9374
:10107000EC016A017B012115310579F4E881F981E0
:101080000190F081E02D642FDF91CF911F910F919E
:10109000FF90EF90DF90CF9019942A303105D9F46A
:1010A00077FF18C06DE25CDF8C0144275527BA0139
:1010B0004C195D096E097F092AE0CE017ADF800FA5
:1010C000911FDF91CF911F910F91FF90EF90DF90D3
:1010D000CF9008952AE0B701A601CE01DF91CF910C
:1010E0001F910F91FF90EF90DF90CF9062CF9A0108
:1010F000AB01662757FD6095762FB2CFA1E21A2E7D
:10110000AA1BBB1BFD010DC0AA1FBB1FEE1FFF1FAB
:10111000A217B307E407F50720F0A21BB30BE40BFB
:10112000F50B661F771F881F991F1A9469F7609542
:101130007095809590959B01AC01BD01CF010895FC
:10114000EE0FFF1F0590F491E02D19940790F69192
:08115000E02D1994F894FFCF83
:101158000D0020616365736F0020617061676164D1
:101168006F0000000000860372072C0359033E033A
:021178007B03F7
:00000001FF
