:100000000C945E000C9486000C9486000C94860080
:100010000C9486000C9486000C9486000C94860048
:100020000C9486000C9486000C9486000C94860038
:100030000C9486000C9486000C9486000C94860028
:100040000C9440040C9486000C9486000C9486005A
:100050000C9486000C9486000C9486000C94860008
:100060000C9423020C94860000000008000201009A
:100070000003040700000000000000000102040863
:100080001020408001020408102001020408102002
:10009000040404040404040402020202020203032E
:1000A0000303030300000000250028002B000000CC
:1000B0000000240027002A00B900810111241FBE7E
:1000C000CFEFD8E0DEBFCDBF11E0A0E0B1E0E8E1C6
:1000D000FCE002C005900D92A033B107D9F722E0F1
:1000E000A0E3B1E001C01D92A530B207E1F710E036
:1000F000CCEBD0E004C02297FE010E940606C83B6C
:10010000D107C9F70E94F4050C940A060C9400006C
:1001100080E391E00E943E0461E0809102010C9432
:100120004405CF93DF9364E071E080E391E00E94A7
:10013000F105C2E0D1E061E088810E947D05609117
:10014000000170910101882777FD8095982F0E940A
:10015000AD0460E088810E947D056091000170918E
:100160000101882777FD8095982FDF91CF910C941E
:10017000AD0424E044E16FE380E391E00C9450038C
:1001800080916C0190E020916D01821B910908958E
:1001900020916D0180916C01281750F4E22FF0E05E
:1001A000E259FE4F808190E02F5F20936D0108950A
:1001B0008FEF9FEF0895E0916D0180916C01E8173A
:1001C00030F4F0E0E259FE4F808190E008958FEF27
:1001D0009FEF08950895CF92DF92EF92FF920F93D1
:1001E0001F93CF93DF937C01CB018A0120914801BB
:1001F000222389F0EB016B01C40ED51ECC15DD0561
:1002000069F06991D701ED91FC910190F081E02DA9
:10021000C7010995F3CF642F0E94FA01C801DF914D
:10022000CF911F910F91FF90EF90DF90CF900895A5
:10023000CF93DF931F92CDB7DEB76983209148013A
:100240002223D1F020914901203240F021E030E01A
:10025000FC013383228380E090E015C080914A0145
:10026000E82FF0E0E55BFE4F998190838F5F8093EC
:100270004A018093490105C061E0CE0101960E94C8
:10028000FA0181E090E00F90DF91CF910895FC0199
:100290001382128248EE53E060E070E0448355839D
:1002A000668377838CE191E0918380830895109237
:1002B0006D0110926C0110924A01109249010C9448
:1002C000850181E08093480160936B0110924A019F
:1002D0001092490108950F93062F21E040914901A2
:1002E0006BE471E080916B010E94A30110924A01BE
:1002F00010924901109248010F91089561E00C9409
:100300006B018CE391E00C9447011092FB0181E0BA
:100310008093F9011092F80161E082E10E947D056D
:1003200061E083E10E947D05E9EBF0E080818E7F52
:10033000808380818D7F808388E48093B80085E40A
:100340008093BC0008950F93413208F04AC0909109
:10035000FB019111FCCF92E09093FB010093F90116
:100360009FEF90938E011092D3014093D201FB0135
:1003700064ED71E0DB019A2F961B941718F49191AC
:100380009D93F9CF1092FA019091FA01880F892B71
:100390008093FA018091F801813061F41092F801A4
:1003A0008091FA018093BB008091BC0083FDF8CF5F
:1003B00085EC01C085EE8093BC00222321F0809162
:1003C000FB018230E1F380918E018F3F61F08091DB
:1003D0008E01803251F080918E01803341F483E0B0
:1003E00007C081E005C080E003C082E001C084E076
:1003F0000F910895613298F42091FB01243089F423
:100400006093B001FC0182EB91E0DC012A2F281BF4
:10041000261718F421912D93F9CF80E0089581E0FB
:10042000089582E0089585ED8093BC008091BC0022
:1004300084FDFCCF1092FB01089585EC8093BC00F5
:100440001092FB0108951F920F920FB60F92112484
:100450002F933F934F935F936F937F938F939F93CC
:10046000AF93BF93EF93FF938091B900887F80365D
:1004700009F49EC078F5883209F45DC090F48031AB
:1004800009F456C038F4882309F4F5C0883009F41B
:100490004FC0F5C0883109F44EC0803209F45FC006
:1004A000EEC0803409F46AC058F4803309F457C0B0
:1004B000883309F0E4C080938E010E941D02DFC0E2
:1004C000803509F44FC0883509F45DC0883409F0DF
:1004D000D6C0D3C0883909F4C4C0A8F4883709F459
:1004E00067C038F4883609F463C0803709F460C007
:1004F000C6C0883809F4B5C0803909F45FC08038B7
:1005000009F0BDC05BC0803B09F483C038F4803A79
:1005100009F466C0883A09F47CC0B1C0803C09F493
:10052000A4C0883C09F4A1C0883B09F487C0A7C0D7
:100530008091FA0110C09091D3018091D201981757
:1005400070F5E091D30181E08E0F8093D301F0E04C
:10055000EC52FE4F80818093BB0085EC83C080937A
:100560008E018BC0E091D30181E08E0F8093D30187
:100570008091BB00F0E0EC52FE4F80839091D3015C
:100580008091D2016BC0E091D30181E08E0F809306
:10059000D3018091BB00F0E0EC52FE4F808380914C
:1005A000F90181116AC081E08093F80184EA5EC09C
:1005B00083E08093FB0110928F01CFCF80918F0158
:1005C000803208F04EC0E0918F0181E08E0F809361
:1005D0008F018091BB00F0E0E057FE4F8083BDCFDC
:1005E0000E941D0280918F01803230F4E0918F01D2
:1005F000F0E0E057FE4F108260918F0170E0E091D3
:10060000F401F091F50180E991E0099510928F01D4
:1006100036C084E08093FB011092B1011092B001CA
:10062000E091F601F091F70109958091B0018111F7
:1006300005C081E08093B0011092B201E091B10158
:1006400081E08E0F8093B101F0E0EE54FE4F808187
:100650008093BB009091B1018091B001981708F48C
:100660007CCF85E88093BC000AC085EC8093BC00F9
:100670001092FB0104C010928E010E941302FF91A0
:10068000EF91BF91AF919F918F917F916F915F910A
:100690004F913F912F910F900FBE0F901F90189583
:1006A000FC01138212828CE291E091838083648347
:1006B0004187228780E8838708951F93CF93DF9334
:1006C000EC01162F6C818CE391E00E946101E091B6
:1006D0003C01F0913D016B85612B0190F081E02D93
:1006E0008CE391E009958CE391E0DF91CF911F912C
:1006F0000C947E011F93CF93DF93EC01162F606162
:100700000E945D0381E090E00E94D504612F6F7E1E
:10071000CE010E945D0382E390E0DF91CF911F91B3
:100720000C94D5041F93CF93DF93EC01162F0E94F6
:100730005D03612FCE01DF91CF911F910C947A035D
:10074000EF92FF921F93CF93DF931F92CDB7DEB747
:100750007C01162F62956F70642B49830E9492036F
:10076000612F6F704981642BC7010F90DF91CF918A
:100770001F91FF90EF900C94920340E00C94A00323
:1007800061E00E94BD0380ED97E00C94D50462E027
:100790000E94BD0380ED97E00C94D504FC016681B6
:1007A000262F246026836C600C94BD0340E40E94D5
:1007B000A00380E090E00895CF93DF93EC014230F6
:1007C00018F08D8188608D834887222329F041307D
:1007D00019F48D8184608D8380E593EC0E94D504AB
:1007E0006B85CE010E945D0368EE73E080E090E0CF
:1007F0000E94AD0463E0CE010E94920384E991E17E
:100800000E94D50463E0CE010E94920384E991E145
:100810000E94D50463E0CE010E94920386E990E035
:100820000E94D50462E0CE010E9492036D81606255
:10083000CE010E94BD0384E08E83CE010E94CE03D0
:10084000CE010E94C00382E08F8366E0CE010E9449
:10085000BD03CE01DF91CF910C94C703CF93DF93FB
:10086000EC018CE391E00E9457011D8220E04A8553
:100870006985CE01DF91CF910C94DC030C942E049A
:100880001F920F920FB60F9211242F933F938F93C5
:100890009F93AF93BF938091FD019091FE01A09132
:1008A000FF01B09100023091FC0123E0230F2D37AE
:1008B00020F40196A11DB11D05C026E8230F029664
:1008C000A11DB11D2093FC018093FD019093FE01B9
:1008D000A093FF01B0930002809101029091020267
:1008E000A0910302B09104020196A11DB11D809355
:1008F000010290930202A0930302B0930402BF91FD
:10090000AF919F918F913F912F910F900FBE0F90BC
:100910001F9018953FB7F8948091010290910202C0
:10092000A0910302B091040226B5A89B05C02F3FF9
:1009300019F00196A11DB11D3FBF6627782F892FA1
:100940009A2F620F711D811D911D42E0660F771F66
:10095000881F991F4A95D1F70895CF92DF92EF92A1
:10096000FF92CF93DF936B017C010E948A04EB011D
:10097000C114D104E104F10489F00E9403060E942D
:100980008A046C1B7D0B683E734090F381E0C81AAB
:10099000D108E108F108C851DC4FEACFDF91CF91CF
:1009A000FF90EF90DF90CF9008958230910538F05E
:1009B000880F991F880F991F05970197F1F70895E0
:1009C000789484B5826084BD84B5816084BD85B52A
:1009D000826085BD85B5816085BDEEE6F0E08081F1
:1009E00081608083E1E8F0E0108280818260808312
:1009F000808181608083E0E8F0E080818160808395
:100A0000E1EBF0E0808184608083E0EBF0E08081C6
:100A100081608083EAE7F0E0808184608083808168
:100A20008260808380818160808380818068808310
:100A30001092C1000895833081F028F4813099F03C
:100A40008230A1F008958730A9F08830B9F0843061
:100A5000D1F4809180008F7D03C0809180008F77DA
:100A600080938000089584B58F7702C084B58F7D10
:100A700084BD08958091B0008F7703C08091B0004D
:100A80008F7D8093B0000895CF93DF9390E0FC01B9
:100A9000E458FF4F2491FC01E057FF4F84918823D5
:100AA00049F190E0880F991FFC01E255FF4FA59195
:100AB000B4918C559F4FFC01C591D4919FB76111A2
:100AC00008C0F8948C91209582238C93888182238E
:100AD0000AC0623051F4F8948C91322F3095832300
:100AE0008C938881822B888304C0F8948C91822B0C
:100AF0008C939FBFDF91CF9108950F931F93CF9356
:100B0000DF931F92CDB7DEB7282F30E0F901E85907
:100B1000FF4F8491F901E458FF4F1491F901E05718
:100B2000FF4F04910023C9F0882321F069830E94BC
:100B30001B056981E02FF0E0EE0FFF1FEC55FF4F22
:100B4000A591B4919FB7F8948C91611103C0109551
:100B5000812301C0812B8C939FBF0F90DF91CF9198
:100B60001F910F910895CF92DF92EF92FF920F9312
:100B70001F93CF93DF937C016A01EB0100E010E04B
:100B80000C151D0571F06991D701ED91FC91019053
:100B9000F081E02DC7010995892B19F00F5F1F4FD8
:100BA000EFCFC801DF91CF911F910F91FF90EF9090
:100BB000DF90CF9008956115710581F0DB010D90F4
:100BC0000020E9F7AD0141505109461B570BDC01EC
:100BD000ED91FC910280F381E02D099480E090E09A
:100BE00008950C94DB0508950E94E0040E94F3052B
:100BF0000E948800C0E0D0E00E9491002097E1F3BD
:100C00000E940000F9CF0895EE0FFF1F0590F491A8
:080C1000E02D0994F894FFCFD8
:100C1800F4010D0048454C4C4F204655434B494E76
:100C280020574F524C442100000000001801EB00EF
:100C3800C000C800DB00EA0000000000D603B305CE
:00000001FF
